{
  "_format": "hh-sol-artifact-1",
  "contractName": "Sisan",
  "sourceName": "contracts/Sisan.sol",
  "abi": [
    {
      "inputs": [
        {
          "internalType": "address",
          "name": "initialOwner",
          "type": "address"
        }
      ],
      "stateMutability": "nonpayable",
      "type": "constructor"
    },
    {
      "inputs": [
        {
          "internalType": "address",
          "name": "owner",
          "type": "address"
        }
      ],
      "name": "OwnableInvalidOwner",
      "type": "error"
    },
    {
      "inputs": [
        {
          "internalType": "address",
          "name": "account",
          "type": "address"
        }
      ],
      "name": "OwnableUnauthorizedAccount",
      "type": "error"
    },
    {
      "inputs": [],
      "name": "ReentrancyGuardReentrantCall",
      "type": "error"
    },
    {
      "anonymous": false,
      "inputs": [
        {
          "indexed": false,
          "internalType": "uint256",
          "name": "amount",
          "type": "uint256"
        }
      ],
      "name": "EthRecieved",
      "type": "event"
    },
    {
      "anonymous": false,
      "inputs": [
        {
          "indexed": false,
          "internalType": "address",
          "name": "owner",
          "type": "address"
        }
      ],
      "name": "Initialized",
      "type": "event"
    },
    {
      "anonymous": false,
      "inputs": [
        {
          "indexed": false,
          "internalType": "uint128",
          "name": "invoiceIdx",
          "type": "uint128"
        },
        {
          "indexed": false,
          "internalType": "address",
          "name": "payer",
          "type": "address"
        },
        {
          "indexed": false,
          "internalType": "uint128",
          "name": "amount",
          "type": "uint128"
        },
        {
          "indexed": false,
          "internalType": "address",
          "name": "validPaymentToken",
          "type": "address"
        }
      ],
      "name": "InvoiceAccepted",
      "type": "event"
    },
    {
      "anonymous": false,
      "inputs": [
        {
          "indexed": false,
          "internalType": "uint128",
          "name": "invoiceIdx",
          "type": "uint128"
        }
      ],
      "name": "InvoiceCompleted",
      "type": "event"
    },
    {
      "anonymous": false,
      "inputs": [
        {
          "indexed": false,
          "internalType": "uint128",
          "name": "invoiceIdx",
          "type": "uint128"
        },
        {
          "indexed": false,
          "internalType": "address",
          "name": "creator",
          "type": "address"
        },
        {
          "indexed": false,
          "internalType": "uint128",
          "name": "amount",
          "type": "uint128"
        },
        {
          "indexed": false,
          "internalType": "address",
          "name": "validPaymentToken",
          "type": "address"
        }
      ],
      "name": "InvoiceCreated",
      "type": "event"
    },
    {
      "anonymous": false,
      "inputs": [
        {
          "indexed": true,
          "internalType": "address",
          "name": "previousOwner",
          "type": "address"
        },
        {
          "indexed": true,
          "internalType": "address",
          "name": "newOwner",
          "type": "address"
        }
      ],
      "name": "OwnershipTransferred",
      "type": "event"
    },
    {
      "anonymous": false,
      "inputs": [
        {
          "indexed": false,
          "internalType": "uint128",
          "name": "invoiceIdx",
          "type": "uint128"
        },
        {
          "indexed": false,
          "internalType": "address",
          "name": "creator",
          "type": "address"
        },
        {
          "indexed": false,
          "internalType": "address",
          "name": "payer",
          "type": "address"
        }
      ],
      "name": "PaymentCanceled",
      "type": "event"
    },
    {
      "anonymous": false,
      "inputs": [
        {
          "indexed": false,
          "internalType": "uint128",
          "name": "invoiceIdx",
          "type": "uint128"
        }
      ],
      "name": "PaymentWithdrawn",
      "type": "event"
    },
    {
      "inputs": [
        {
          "internalType": "uint128",
          "name": "invoiceIdx",
          "type": "uint128"
        },
        {
          "internalType": "bool",
          "name": "recurrent",
          "type": "bool"
        }
      ],
      "name": "acceptInvoice",
      "outputs": [],
      "stateMutability": "payable",
      "type": "function"
    },
    {
      "inputs": [
        {
          "internalType": "uint128",
          "name": "invoiceIdx",
          "type": "uint128"
        }
      ],
      "name": "cancelPayment",
      "outputs": [],
      "stateMutability": "payable",
      "type": "function"
    },
    {
      "inputs": [
        {
          "internalType": "uint128",
          "name": "_amount",
          "type": "uint128"
        },
        {
          "internalType": "bool",
          "name": "_recurrent",
          "type": "bool"
        },
        {
          "internalType": "uint128",
          "name": "_numberOfRecurrentPayment",
          "type": "uint128"
        },
        {
          "internalType": "uint128",
          "name": "_recurrentPaymentInterval",
          "type": "uint128"
        },
        {
          "internalType": "uint128",
          "name": "_criticalPeriod",
          "type": "uint128"
        },
        {
          "internalType": "address",
          "name": "_validPaymentToken",
          "type": "address"
        },
        {
          "internalType": "address[]",
          "name": "_payers",
          "type": "address[]"
        }
      ],
      "name": "createInvoice",
      "outputs": [
        {
          "internalType": "uint128",
          "name": "invoiceIdx",
          "type": "uint128"
        }
      ],
      "stateMutability": "nonpayable",
      "type": "function"
    },
    {
      "inputs": [],
      "name": "currentInvoiceIdx",
      "outputs": [
        {
          "internalType": "uint128",
          "name": "",
          "type": "uint128"
        }
      ],
      "stateMutability": "view",
      "type": "function"
    },
    {
      "inputs": [],
      "name": "defaultCriticalPeriod",
      "outputs": [
        {
          "internalType": "uint128",
          "name": "",
          "type": "uint128"
        }
      ],
      "stateMutability": "view",
      "type": "function"
    },
    {
      "inputs": [
        {
          "internalType": "uint128",
          "name": "invoiceIdx",
          "type": "uint128"
        }
      ],
      "name": "getInvoice",
      "outputs": [
        {
          "components": [
            {
              "internalType": "uint128",
              "name": "invoiceIdx",
              "type": "uint128"
            },
            {
              "internalType": "uint128",
              "name": "amount",
              "type": "uint128"
            },
            {
              "internalType": "uint128",
              "name": "criticalPeriod",
              "type": "uint128"
            },
            {
              "internalType": "address",
              "name": "creator",
              "type": "address"
            },
            {
              "internalType": "address[]",
              "name": "payers",
              "type": "address[]"
            },
            {
              "internalType": "bool",
              "name": "recurrent",
              "type": "bool"
            },
            {
              "internalType": "int128",
              "name": "numberOfRecurrentPayment",
              "type": "int128"
            },
            {
              "internalType": "uint128",
              "name": "recurrentPaymentInterval",
              "type": "uint128"
            },
            {
              "internalType": "address",
              "name": "validPaymentToken",
              "type": "address"
            },
            {
              "internalType": "uint128",
              "name": "lastWithdrawal",
              "type": "uint128"
            },
            {
              "internalType": "enum Sisan.InvoiceStatus",
              "name": "status",
              "type": "uint8"
            }
          ],
          "internalType": "struct Sisan.Invoice",
          "name": "invoice",
          "type": "tuple"
        }
      ],
      "stateMutability": "view",
      "type": "function"
    },
    {
      "inputs": [
        {
          "internalType": "address",
          "name": "creator",
          "type": "address"
        },
        {
          "internalType": "address",
          "name": "payer",
          "type": "address"
        },
        {
          "internalType": "uint128",
          "name": "invoiceIdx",
          "type": "uint128"
        }
      ],
      "name": "getInvoiceBalance",
      "outputs": [
        {
          "internalType": "uint256",
          "name": "balance",
          "type": "uint256"
        }
      ],
      "stateMutability": "view",
      "type": "function"
    },
    {
      "inputs": [
        {
          "internalType": "address",
          "name": "creator",
          "type": "address"
        },
        {
          "internalType": "uint128",
          "name": "invoiceIdx",
          "type": "uint128"
        }
      ],
      "name": "getInvoiceByCreatorAndIdx",
      "outputs": [
        {
          "components": [
            {
              "internalType": "uint128",
              "name": "invoiceIdx",
              "type": "uint128"
            },
            {
              "internalType": "uint128",
              "name": "amount",
              "type": "uint128"
            },
            {
              "internalType": "uint128",
              "name": "criticalPeriod",
              "type": "uint128"
            },
            {
              "internalType": "address",
              "name": "creator",
              "type": "address"
            },
            {
              "internalType": "address[]",
              "name": "payers",
              "type": "address[]"
            },
            {
              "internalType": "bool",
              "name": "recurrent",
              "type": "bool"
            },
            {
              "internalType": "int128",
              "name": "numberOfRecurrentPayment",
              "type": "int128"
            },
            {
              "internalType": "uint128",
              "name": "recurrentPaymentInterval",
              "type": "uint128"
            },
            {
              "internalType": "address",
              "name": "validPaymentToken",
              "type": "address"
            },
            {
              "internalType": "uint128",
              "name": "lastWithdrawal",
              "type": "uint128"
            },
            {
              "internalType": "enum Sisan.InvoiceStatus",
              "name": "status",
              "type": "uint8"
            }
          ],
          "internalType": "struct Sisan.Invoice",
          "name": "invoice",
          "type": "tuple"
        }
      ],
      "stateMutability": "view",
      "type": "function"
    },
    {
      "inputs": [
        {
          "internalType": "address",
          "name": "payer",
          "type": "address"
        },
        {
          "internalType": "uint128",
          "name": "invoiceIdx",
          "type": "uint128"
        }
      ],
      "name": "getInvoiceByPayerAndIdx",
      "outputs": [
        {
          "components": [
            {
              "internalType": "uint128",
              "name": "invoiceIdx",
              "type": "uint128"
            },
            {
              "internalType": "uint128",
              "name": "amount",
              "type": "uint128"
            },
            {
              "internalType": "uint128",
              "name": "criticalPeriod",
              "type": "uint128"
            },
            {
              "internalType": "address",
              "name": "creator",
              "type": "address"
            },
            {
              "internalType": "address[]",
              "name": "payers",
              "type": "address[]"
            },
            {
              "internalType": "bool",
              "name": "recurrent",
              "type": "bool"
            },
            {
              "internalType": "int128",
              "name": "numberOfRecurrentPayment",
              "type": "int128"
            },
            {
              "internalType": "uint128",
              "name": "recurrentPaymentInterval",
              "type": "uint128"
            },
            {
              "internalType": "address",
              "name": "validPaymentToken",
              "type": "address"
            },
            {
              "internalType": "uint128",
              "name": "lastWithdrawal",
              "type": "uint128"
            },
            {
              "internalType": "enum Sisan.InvoiceStatus",
              "name": "status",
              "type": "uint8"
            }
          ],
          "internalType": "struct Sisan.Invoice",
          "name": "invoice",
          "type": "tuple"
        }
      ],
      "stateMutability": "view",
      "type": "function"
    },
    {
      "inputs": [],
      "name": "owner",
      "outputs": [
        {
          "internalType": "address",
          "name": "",
          "type": "address"
        }
      ],
      "stateMutability": "view",
      "type": "function"
    },
    {
      "inputs": [],
      "name": "renounceOwnership",
      "outputs": [],
      "stateMutability": "nonpayable",
      "type": "function"
    },
    {
      "inputs": [
        {
          "internalType": "address",
          "name": "newOwner",
          "type": "address"
        }
      ],
      "name": "transferOwnership",
      "outputs": [],
      "stateMutability": "nonpayable",
      "type": "function"
    },
    {
      "inputs": [
        {
          "internalType": "uint128",
          "name": "invoiceIdx",
          "type": "uint128"
        },
        {
          "internalType": "address",
          "name": "payer",
          "type": "address"
        }
      ],
      "name": "withdrawPayment",
      "outputs": [],
      "stateMutability": "nonpayable",
      "type": "function"
    },
    {
      "stateMutability": "payable",
      "type": "receive"
    }
  ],
  "bytecode": "0x6080604052600380546001600160801b031916611bf0179055600480546001600160a01b03191690553480156200003557600080fd5b506040516200338638038062003386833981016040819052620000589162000184565b806001600160a01b0381166200008857604051631e4fbdf760e01b81526000600482015260240160405180910390fd5b620000938162000134565b5060018055600280546001600160801b0319169055600354620000c1906001600160801b03166007620001b6565b600280546001600160801b03928316600160801b0292169190911790557f908408e307fc569b417f6cbec5d5a06f44a0a505ac0479b47d421a4b2fd6a1e6620001126000546001600160a01b031690565b6040516001600160a01b03909116815260200160405180910390a150620001f0565b600080546001600160a01b038381166001600160a01b0319831681178455604051919092169283917f8be0079c531659141344cd1fd0a4f28419497f9722a3daafe3b4186f6b6457e09190a35050565b6000602082840312156200019757600080fd5b81516001600160a01b0381168114620001af57600080fd5b9392505050565b6001600160801b03818116838216028082169190828114620001e857634e487b7160e01b600052601160045260246000fd5b505092915050565b61318680620002006000396000f3fe6080604052600436106100c55760003560e01c8063715018a61161007f578063b573601811610059578063b57360181461025b578063b64b1a361461026e578063de28cea814610281578063f2fde38b146102a857600080fd5b8063715018a6146101f05780637c3b8ad5146102055780638da5cb5b1461023357600080fd5b806234fd60146101045780630ae188f6146101415780630ce78d481461016e5780631ad8d20b1461018e57806366c2c2b2146101b057806370f6ba35146101d057600080fd5b366100ff576040513481527f18a2de56d99b6c6f702e6567687a1e25628c8a03a2608c1339b3ac70930e52eb9060200160405180910390a1005b600080fd5b34801561011057600080fd5b50600254610124906001600160801b031681565b6040516001600160801b0390911681526020015b60405180910390f35b34801561014d57600080fd5b5061016161015c3660046129e7565b6102c8565b6040516101389190612a97565b34801561017a57600080fd5b506101616101893660046129e7565b610422565b34801561019a57600080fd5b506101ae6101a9366004612bae565b61055f565b005b3480156101bc57600080fd5b506101616101cb366004612bd8565b610d5c565b3480156101dc57600080fd5b506101246101eb366004612c4f565b610eaa565b3480156101fc57600080fd5b506101ae6113bb565b34801561021157600080fd5b50610225610220366004612d64565b6113cf565b604051908152602001610138565b34801561023f57600080fd5b506000546040516001600160a01b039091168152602001610138565b6101ae610269366004612da7565b611422565b6101ae61027c366004612bd8565b611d55565b34801561028d57600080fd5b5060025461012490600160801b90046001600160801b031681565b3480156102b457600080fd5b506101ae6102c3366004612dde565b6125c5565b6102d06128e1565b6001600160a01b0380841660009081526007602090815260408083206001600160801b0380881685529083529281902081516101608101835281548086168252600160801b900485168185015260018201549094168483015260028101549094166060840152600384018054825181850281018501909352808352939493608086019383018282801561038c57602002820191906000526020600020905b81546001600160a01b0316815260019091019060200180831161036e575b5050509183525050600482015460ff80821615156020840152610100909104600f0b604083015260058301546001600160801b03908116606084015260068401546001600160a01b03166080840152600784015490811660a084015260c090920191600160801b900416600381111561040757610407612a5f565b600381111561041857610418612a5f565b9052509392505050565b61042a6128e1565b6001600160a01b0380841660009081526006602090815260408083206001600160801b0380881685529083529281902081516101608101835281548086168252600160801b900485168185015260018201549094168483015260028101549094166060840152600384018054825181850281018501909352808352939493608086019383018282801561038c576020028201919060005260206000209081546001600160a01b0316815260019091019060200180831161036e575050509183525050600482015460ff80821615156020840152610100909104600f0b604083015260058301546001600160801b03908116606084015260068401546001600160a01b03166080840152600784015490811660a084015260c090920191600160801b900416600381111561040757610407612a5f565b610567612600565b6001600160801b03808316600090815260086020908152604080832081516101608101835281548087168252600160801b900486168185015260018201549095168583015260028101546001600160a01b0316606086015260038101805483518186028101860190945280845294959491936080860193929083018282801561061957602002820191906000526020600020905b81546001600160a01b031681526001909101906020018083116105fb575b5050509183525050600482015460ff80821615156020840152610100909104600f0b604083015260058301546001600160801b03908116606084015260068401546001600160a01b03166080840152600784015490811660a084015260c090920191600160801b900416600381111561069457610694612a5f565b60038111156106a5576106a5612a5f565b90525060608101519091506001600160a01b031633146107325760405162461bcd60e51b815260206004820152603f60248201527f536973616e3a3a77697468647261775061796d656e743a3a4f6e6c792076616c60448201527f69642063726561746f722063616e207769746864726177207061796d656e740060648201526084015b60405180910390fd5b6001816101400151600381111561074b5761074b612a5f565b146107ad5760405162461bcd60e51b815260206004820152602c60248201527f536973616e3a3a77697468647261775061796d656e743a3a496e766f6963652060448201526b1b9bdd081858d8d95c1d195960a21b6064820152608401610729565b60608101516001600160a01b039081166000908152600560209081526040808320938616835292815282822084516001600160801b031683529052908120546107f59061262a565b90506000816001600160801b0316116108695760405162461bcd60e51b815260206004820152603060248201527f536973616e3a3a77697468647261775061796d656e743a3a496e766f6963652060448201526f7061796d656e7420636f6d706c65746560801b6064820152608401610729565b6004546101008301516001600160a01b039081169116146109795761010082015160208301516040516370a0823160e01b81523060048201526001600160801b03909116906001600160a01b038316906370a0823190602401602060405180830381865afa1580156108df573d6000803e3d6000fd5b505050506040513d601f19601f820116820180604052508101906109039190612df9565b10156109775760405162461bcd60e51b815260206004820152603d60248201527f536973616e3a3a77697468647261775061796d656e743a3a496e73756666696360448201527f696e7420746f6b656e2062616c616e636520696e20636f6e74726163740000006064820152608401610729565b505b60c0820180519061098982612e28565b600f0b600f0b8152505060008260c00151600f0b1315610b46576000826101200151436109b69190612e58565b905060008360e00151826109ca9190612e7f565b905060008460200151826109de9190612eb3565b60608601516001600160a01b039081166000908152600560209081526040808320938b16835292815282822089516001600160801b039081168452915291902054919250610a38908290610a339085166126c0565b6126d3565b60608701516001600160a01b0390811660009081526005602090815260408083208c8516845282528083208b516001600160801b03168452909152902091909155600454610100880151908216911603610ac75760405133906001600160801b03841680156108fc02916000818181858888f19350505050158015610ac1573d6000803e3d6000fd5b50610b41565b61010086015160405163a9059cbb60e01b81526001600160a01b0382169063a9059cbb90610afb9033908790600401612ede565b6020604051808303816000875af1158015610b1a573d6000803e3d6000fd5b505050506040513d601f19601f82011682018060405250810190610b3e9190612f00565b50505b505050505b60008260c00151600f0b13610d0e576004546101008301516001600160a01b03918216911603610baf57602082015160405133916001600160801b031680156108fc02916000818181858888f19350505050158015610ba9573d6000803e3d6000fd5b50610c2c565b610100820151602083015160405163a9059cbb60e01b81526001600160a01b0383169163a9059cbb91610be6913391600401612ede565b6020604051808303816000875af1158015610c05573d6000803e3d6000fd5b505050506040513d601f19601f82011682018060405250810190610c299190612f00565b50505b60608201516001600160a01b039081166000908152600560209081526040808320938716835292815282822085516001600160801b0390811684529082529290912054908401519091610c85918391610a3391166126c0565b60608401516001600160a01b039081166000908152600560209081526040808320938916835292815282822087516001600160801b0316835290522055600361014084018190525082516040516001600160801b0390911681527f2fd0bfd8fbe3fc61d500b99b0e2dd3a759f58b9a95a075304f9718515df3526f9060200160405180910390a1505b81516040516001600160801b0390911681527fb3b0981570aa2a6d5a861c595e05230bc925b3f22a2bf148abdd8e88f3f29c789060200160405180910390a15050610d5860018055565b5050565b610d646128e1565b6001600160801b0380831660009081526008602090815260409182902082516101608101845281548086168252600160801b900485168184015260018201549094168484015260028101546001600160a01b0316606085015260038101805484518185028101850190955280855291936080860193909290830182828015610e1557602002820191906000526020600020905b81546001600160a01b03168152600190910190602001808311610df7575b5050509183525050600482015460ff80821615156020840152610100909104600f0b604083015260058301546001600160801b03908116606084015260068401546001600160a01b03166080840152600784015490811660a084015260c090920191600160801b9004166003811115610e9057610e90612a5f565b6003811115610ea157610ea1612a5f565b90525092915050565b8051600090815b81811015610f5257336001600160a01b0316848281518110610ed557610ed5612f1d565b60200260200101516001600160a01b031603610f4a5760405162461bcd60e51b815260206004820152602e60248201527f536973616e3a3a616363657074496e766f6963653a3a43726561746f7220636160448201526d37103737ba103132903830bcb2b960911b6064820152608401610729565b600101610eb1565b506002546001600160801b03600160801b90910481169086161015610fdf5760405162461bcd60e51b815260206004820152603d60248201527f536973616e3a3a616363657074496e766f6963653a3a437269746963616c207060448201527f6572696f64206d757374206265206174206c65617374203720646179730000006064820152608401610729565b60408051610160810182526002546001600160801b0390811682528b16602082015260009181016110108843612f33565b6001600160801b039081168252336020830152604082018790528b15156060830152600f8b900b608083015289811660a08301526001600160a01b03881660c0830152431660e082015261010001600090526060810180516001600160a01b03908116600090815260066020908152604080832086516001600160801b03908116855290835292819020865183880151908516600160801b91861691909102178155908601516001820180546001600160801b031916919094161790925592516002820180546001600160a01b031916919093161790915560808301518051939450849391926111089260038501929091019061293a565b5060a082015160048201805460c08501516001600160801b03908116610100908102610100600160881b0319951515959095166001600160881b0319938416179490941790925560e08501516005850180549184166001600160801b0319928316179055928501516006850180546001600160a01b039092166001600160a01b0319909216919091179055610120850151600785018054919093169381168417835561014086015193911617600160801b8360038111156111cb576111cb612a5f565b02179055505081516001600160801b03908116600090815260086020908152604091829020855182870151908516600160801b91861691909102178155918501516001830180546001600160801b031916919094161790925560608401516002820180546001600160a01b0319166001600160a01b039092169190911790556080840151805185945091926112689260038501929091019061293a565b5060a082015160048201805460c08501516001600160801b03908116610100908102610100600160881b0319951515959095166001600160881b0319938416179490941790925560e08501516005850180549184166001600160801b0319928316179055928501516006850180546001600160a01b039092166001600160a01b0319909216919091179055610120850151600785018054919093169381168417835561014086015193911617600160801b83600381111561132b5761132b612a5f565b021790555050600280546001600160801b03169150600061134b83612f53565b91906101000a8154816001600160801b0302191690836001600160801b03160217905550507fec3bba3ad1a9e19d889306e43d378166d94e9102e7d51e43e9556b03380a117683338c886040516113a59493929190612f79565b60405180910390a1519998505050505050505050565b6113c361271a565b6113cd6000612747565b565b6001600160a01b03808416600090815260056020908152604080832093861683529281528282206001600160801b03851683529052908120546114119061262a565b6001600160801b0316949350505050565b61142a612600565b6001600160801b03808316600090815260086020908152604080832081516101608101835281548087168252600160801b900486168185015260018201549095168583015260028101546001600160a01b031660608601526003810180548351818602810186019094528084529495949193608086019392908301828280156114dc57602002820191906000526020600020905b81546001600160a01b031681526001909101906020018083116114be575b5050509183525050600482015460ff80821615156020840152610100909104600f0b604083015260058301546001600160801b03908116606084015260068401546001600160a01b03166080840152600784015490811660a084015260c090920191600160801b900416600381111561155757611557612a5f565b600381111561156857611568612a5f565b8152505090508060a001511515821515146115dd5760405162461bcd60e51b815260206004820152602f60248201527f536973616e3a3a616363657074496e766f6963653a3a5061796d656e74206d7560448201526e1cdd081899481c9958dd5c9c995b9d608a1b6064820152608401610729565b6080810151516000805b8281101561163257336001600160a01b03168460800151828151811061160f5761160f612f1d565b60200260200101516001600160a01b03160361162a57600191505b6001016115e7565b50806116a65760405162461bcd60e51b815260206004820152603960248201527f536973616e3a3a63616e63656c5061796d656e743a3a4f6e6c792076616c696460448201527f2070617965722063616e20616363657074207061796d656e74000000000000006064820152608401610729565b60016101408401819052506001600160801b03858116600090815260086020908152604091829020865187830151908516600160801b91861691909102178155918601516001830180546001600160801b031916919094161790925560608501516002820180546001600160a01b0319166001600160a01b0390921691909117905560808501518051869361174292600385019291019061293a565b5060a082015160048201805460c08501516001600160801b03908116610100908102610100600160881b0319951515959095166001600160881b0319938416179490941790925560e08501516005850180549184166001600160801b0319928316179055928501516006850180546001600160a01b039092166001600160a01b0319909216919091179055610120850151600785018054919093169381168417835561014086015193911617600160801b83600381111561180557611805612a5f565b0217905550503360009081526007602090815260408083206001600160801b038a8116855290835292819020875188840151908516600160801b91861691909102178155908701516001820180546001600160801b031916919094161790925560608601516002830180546001600160a01b0319166001600160a01b03909216919091179055608086015180518794506118a5926003850192019061293a565b5060a082015160048201805460c08501516001600160801b03908116610100908102610100600160881b0319951515959095166001600160881b0319938416179490941790925560e08501516005850180549184166001600160801b0319928316179055928501516006850180546001600160a01b039092166001600160a01b0319909216919091179055610120850151600785018054919093169381168417835561014086015193911617600160801b83600381111561196857611968612a5f565b0217905550505060c0830151602084015160009161198591612eb3565b9050600061199b826001600160801b03166126c0565b60608601516001600160a01b03908116600090815260056020908152604080832033845282528083208a516001600160801b0316845290915290208290556004546101008801519293508116911603611a66578460a0015115611a3a5760008560c0015134611a0a9190612eb3565b905034816001600160801b031614611a345760405162461bcd60e51b815260040161072990612fac565b50611a66565b3485602001516001600160801b031614611a665760405162461bcd60e51b815260040161072990612fac565b6004546101008601516001600160a01b03908116911614611d0157610100850151604051636eb1769f60e11b81523360048201523060248201526000906001600160a01b0383169063dd62ed3e90604401602060405180830381865afa158015611ad4573d6000803e3d6000fd5b505050506040513d601f19601f82011682018060405250810190611af89190612df9565b90508660a0015115611c0f5760008760c001518860200151611b1a9190612eb3565b905081816001600160801b031614611b895760405162461bcd60e51b815260206004820152602c60248201527f536973616e3a3a616363657074496e766f6963653a3a496e737566666963696560448201526b6e7420616c6c6f77616e636560a01b6064820152608401610729565b6040516323b872dd60e01b81523360048201523060248201526001600160801b03821660448201526001600160a01b038416906323b872dd906064016020604051808303816000875af1158015611be4573d6000803e3d6000fd5b505050506040513d601f19601f82011682018060405250810190611c089190612f00565b5050611cfe565b8087602001516001600160801b031614611c855760405162461bcd60e51b815260206004820152603160248201527f536973616e3a3a616363657074496e766f6963653a3a496e73756666696369656044820152701b9d081d1bdad95b88185d1d1858da1959607a1b6064820152608401610729565b6040516323b872dd60e01b8152336004820152306024820152604481018290526001600160a01b038316906323b872dd906064016020604051808303816000875af1158015611cd8573d6000803e3d6000fd5b505050506040513d601f19601f82011682018060405250810190611cfc9190612f00565b505b50505b7fcdfa86f2aff07d87d97973bc55f6041be5d94ab6ed79ab54bfab827855bd270c87338760200151886101000151604051611d3f9493929190612f79565b60405180910390a15050505050610d5860018055565b611d5d612600565b6001600160801b03808216600090815260086020908152604080832081516101608101835281548087168252600160801b900486168185015260018201549095168583015260028101546001600160a01b03166060860152600381018054835181860281018601909452808452949594919360808601939290830182828015611e0f57602002820191906000526020600020905b81546001600160a01b03168152600190910190602001808311611df1575b5050509183525050600482015460ff80821615156020840152610100909104600f0b604083015260058301546001600160801b03908116606084015260068401546001600160a01b03166080840152600784015490811660a084015260c090920191600160801b9004166003811115611e8a57611e8a612a5f565b6003811115611e9b57611e9b612a5f565b9052506080810151519091506000805b82816001600160801b03161015611f1257336001600160a01b03168460800151826001600160801b031681518110611ee557611ee5612f1d565b60200260200101516001600160a01b031603611f0057600191505b80611f0a81612f53565b915050611eab565b5080611f865760405162461bcd60e51b815260206004820152603960248201527f536973616e3a3a63616e63656c5061796d656e743a3a4f6e6c792076616c696460448201527f2070617965722063616e2063616e63656c207061796d656e74000000000000006064820152608401610729565b600182111561202b5760005b82816001600160801b0316101561202957336001600160a01b03168460800151826001600160801b031681518110611fcc57611fcc612f1d565b60200260200101516001600160a01b031603612017578360800151816001600160801b03168151811061200157612001612f1d565b6020026020010160006001600160a01b03168152505b8061202181612f53565b915050611f92565b505b60006001600160a01b0316836080015160008151811061204d5761204d612f1d565b60200260200101516001600160a01b03160361206c5760026101408401525b6001600160801b03848116600090815260086020908152604091829020865187830151908516600160801b91861691909102178155918601516001830180546001600160801b031916919094161790925560608501516002820180546001600160a01b0319166001600160a01b039092169190911790556080850151805186936120fd92600385019291019061293a565b5060a082015160048201805460c08501516001600160801b03908116610100908102610100600160881b0319951515959095166001600160881b0319938416179490941790925560e08501516005850180549184166001600160801b0319928316179055928501516006850180546001600160a01b039092166001600160a01b0319909216919091179055610120850151600785018054919093169381168417835561014086015193911617600160801b8360038111156121c0576121c0612a5f565b0217905550505060608301516001600160a01b03166000908152600560209081526040808320338452825280832086516001600160801b0316845282529091205460c08501519185015161222a92610a339161221c9190612eb3565b6001600160801b03166126c0565b60608401516001600160a01b03166000908152600560209081526040808320338452825280832087516001600160801b039081168552925291829020929092558401511643111561246f576004546101008401516001600160a01b0391821691160361233b57336001600160a01b03166108fc600285602001516122ae9190612e7f565b6001600160801b03169081150290604051600060405180830381858888f193505050501580156122e2573d6000803e3d6000fd5b5082606001516001600160a01b03166108fc600285602001516123059190612e7f565b6001600160801b03169081150290604051600060405180830381858888f19350505050158015612339573d6000803e3d6000fd5b505b6004546101008401516001600160a01b0390811691161461246a5760008361010001519050806001600160a01b031663a9059cbb33600287602001516123819190612e7f565b6040518363ffffffff1660e01b815260040161239e929190612ede565b6020604051808303816000875af11580156123bd573d6000803e3d6000fd5b505050506040513d601f19601f820116820180604052508101906123e19190612f00565b50806001600160a01b031663a9059cbb8560600151600287602001516124079190612e7f565b6040518363ffffffff1660e01b8152600401612424929190612ede565b6020604051808303816000875af1158015612443573d6000803e3d6000fd5b505050506040513d601f19601f820116820180604052508101906124679190612f00565b50505b61255d565b6004546101008401516001600160a01b039182169116036124c557602083015160405133916001600160801b031680156108fc02916000818181858888f193505050501580156124c3573d6000803e3d6000fd5b505b6004546101008401516001600160a01b0390811691161461255d57610100830151602084015160405163a9059cbb60e01b81526001600160a01b0383169163a9059cbb91612517913391600401612ede565b6020604051808303816000875af1158015612536573d6000803e3d6000fd5b505050506040513d601f19601f8201168201806040525081019061255a9190612f00565b50505b8251606080850151604080516001600160801b0390941684526001600160a01b03909116602084015233908301527f67b852a25dbca1a5de0f7b9afd5caa88916fd615655121429817081c8ba88619910160405180910390a15050506125c260018055565b50565b6125cd61271a565b6001600160a01b0381166125f757604051631e4fbdf760e01b815260006004820152602401610729565b6125c281612747565b60026001540361262357604051633ee5aeb560e01b815260040160405180910390fd5b6002600155565b60008161263e5761263b60006126c0565b91505b81600061264a82612797565b604051631cf3005560e21b81529091506000906080906373cc015490612676906004908690820161304d565b602060405180830381865afa158015612693573d6000803e3d6000fd5b505050506040513d601f19601f820116820180604052508101906126b79190612df9565b95945050505050565b60006126cd8260046127c1565b92915050565b6000826126e7576126e460006126c0565b92505b816126f9576126f660006126c0565b91505b8282600061271060048484608063cc2cbeff61284d565b9695505050505050565b6000546001600160a01b031633146113cd5760405163118cdaa760e01b8152336004820152602401610729565b600080546001600160a01b038381166001600160a01b0319831681178455604051919092169283917f8be0079c531659141344cd1fd0a4f28419497f9722a3daafe3b4186f6b6457e09190a35050565b60408051602080825281830190925260609160208201818036833750505060208101929092525090565b6000606060806319e1c5c46127d586612797565b856040518363ffffffff1660e01b81526004016127f3929190613069565b600060405180830381865afa158015612810573d6000803e3d6000fd5b505050506040513d6000823e601f3d908101601f19168201604052612838919081019061308e565b9050612845816020015190565b949350505050565b6000606083838861285d89612797565b61286689612797565b6040518463ffffffff1660e01b815260040161288493929190613122565b600060405180830381865afa1580156128a1573d6000803e3d6000fd5b505050506040513d6000823e601f3d908101601f191682016040526128c9919081019061308e565b90506128d6816020015190565b979650505050505050565b60408051610160810182526000808252602082018190529181018290526060808201839052608082015260a0810182905260c0810182905260e08101829052610100810182905261012081018290529061014082015290565b82805482825590600052602060002090810192821561298f579160200282015b8281111561298f57825182546001600160a01b0319166001600160a01b0390911617825560209092019160019091019061295a565b5061299b92915061299f565b5090565b5b8082111561299b57600081556001016129a0565b80356001600160a01b03811681146129cb57600080fd5b919050565b80356001600160801b03811681146129cb57600080fd5b600080604083850312156129fa57600080fd5b612a03836129b4565b9150612a11602084016129d0565b90509250929050565b60008151808452602080850194506020840160005b83811015612a545781516001600160a01b031687529582019590820190600101612a2f565b509495945050505050565b634e487b7160e01b600052602160045260246000fd5b60048110612a9357634e487b7160e01b600052602160045260246000fd5b9052565b60208152612ab16020820183516001600160801b03169052565b60006020830151612acd60408401826001600160801b03169052565b5060408301516001600160801b03811660608401525060608301516001600160a01b03811660808401525060808301516101608060a0850152612b14610180850183612a1a565b915060a0850151612b2960c086018215159052565b5060c0850151612b3e60e0860182600f0b9052565b5060e0850151610100612b5b818701836001600160801b03169052565b8601519050610120612b77868201836001600160a01b03169052565b8601519050610140612b93868201836001600160801b03169052565b8601519050612ba485830182612a75565b5090949350505050565b60008060408385031215612bc157600080fd5b612bca836129d0565b9150612a11602084016129b4565b600060208284031215612bea57600080fd5b612bf3826129d0565b9392505050565b80151581146125c257600080fd5b634e487b7160e01b600052604160045260246000fd5b604051601f8201601f1916810167ffffffffffffffff81118282101715612c4757612c47612c08565b604052919050565b600080600080600080600060e0888a031215612c6a57600080fd5b612c73886129d0565b9650602080890135612c8481612bfa565b9650612c9260408a016129d0565b9550612ca060608a016129d0565b9450612cae60808a016129d0565b9350612cbc60a08a016129b4565b925060c089013567ffffffffffffffff80821115612cd957600080fd5b818b0191508b601f830112612ced57600080fd5b813581811115612cff57612cff612c08565b8060051b9150612d10848301612c1e565b818152918301840191848101908e841115612d2a57600080fd5b938501935b83851015612d4f57612d40856129b4565b82529385019390850190612d2f565b80965050505050505092959891949750929550565b600080600060608486031215612d7957600080fd5b612d82846129b4565b9250612d90602085016129b4565b9150612d9e604085016129d0565b90509250925092565b60008060408385031215612dba57600080fd5b612dc3836129d0565b91506020830135612dd381612bfa565b809150509250929050565b600060208284031215612df057600080fd5b612bf3826129b4565b600060208284031215612e0b57600080fd5b5051919050565b634e487b7160e01b600052601160045260246000fd5b600081600f0b6f7fffffffffffffffffffffffffffffff198103612e4e57612e4e612e12565b6000190192915050565b6001600160801b03828116828216039080821115612e7857612e78612e12565b5092915050565b60006001600160801b0380841680612ea757634e487b7160e01b600052601260045260246000fd5b92169190910492915050565b6001600160801b03818116838216028082169190828114612ed657612ed6612e12565b505092915050565b6001600160a01b039290921682526001600160801b0316602082015260400190565b600060208284031215612f1257600080fd5b8151612bf381612bfa565b634e487b7160e01b600052603260045260246000fd5b6001600160801b03818116838216019080821115612e7857612e78612e12565b60006001600160801b03808316818103612f6f57612f6f612e12565b6001019392505050565b6001600160801b0394851681526001600160a01b0393841660208201529190931660408201529116606082015260800190565b60208082526031908201527f536973616e3a3a616363657074496e766f6963653a3a496e73756666696369656040820152701b9d08195d1a195c88185d1d1858da1959607a1b606082015260800190565b60005b83811015613018578181015183820152602001613000565b50506000910152565b60008151808452613039816020860160208601612ffd565b601f01601f19169290920160200192915050565b60ff831681526040602082015260006128456040830184613021565b60408152600061307c6040830185613021565b905060ff831660208301529392505050565b6000602082840312156130a057600080fd5b815167ffffffffffffffff808211156130b857600080fd5b818401915084601f8301126130cc57600080fd5b8151818111156130de576130de612c08565b6130f1601f8201601f1916602001612c1e565b915080825285602082850101111561310857600080fd5b613119816020840160208601612ffd565b50949350505050565b60ff8416815260606020820152600061313e6060830185613021565b8281036040840152612710818561302156fea2646970667358221220a3e58ac1faf27deb70a33841acd76d2fc1b38c097c0573960367d8582462c07164736f6c63430008180033",
  "linkReferences": {},
  "deployedLinkReferences": {}
}