{
  "_format": "hh-sol-artifact-1",
  "contractName": "Sisan",
  "sourceName": "contracts/Sisan.sol",
  "abi": [
    {
      "inputs": [],
      "stateMutability": "nonpayable",
      "type": "constructor"
    },
    {
      "inputs": [],
      "name": "ReentrancyGuardReentrantCall",
      "type": "error"
    },
    {
      "anonymous": false,
      "inputs": [
        {
          "indexed": false,
          "internalType": "uint256",
          "name": "amount",
          "type": "uint256"
        }
      ],
      "name": "EthRecieved",
      "type": "event"
    },
    {
      "anonymous": false,
      "inputs": [],
      "name": "Initialized",
      "type": "event"
    },
    {
      "anonymous": false,
      "inputs": [
        {
          "indexed": false,
          "internalType": "uint128",
          "name": "invoiceIdx",
          "type": "uint128"
        },
        {
          "indexed": false,
          "internalType": "address",
          "name": "payer",
          "type": "address"
        },
        {
          "indexed": false,
          "internalType": "uint128",
          "name": "amount",
          "type": "uint128"
        },
        {
          "indexed": false,
          "internalType": "address",
          "name": "validPaymentToken",
          "type": "address"
        }
      ],
      "name": "InvoiceAccepted",
      "type": "event"
    },
    {
      "anonymous": false,
      "inputs": [
        {
          "indexed": false,
          "internalType": "uint128",
          "name": "invoiceIdx",
          "type": "uint128"
        }
      ],
      "name": "InvoiceCompleted",
      "type": "event"
    },
    {
      "anonymous": false,
      "inputs": [
        {
          "indexed": false,
          "internalType": "uint128",
          "name": "invoiceIdx",
          "type": "uint128"
        },
        {
          "indexed": false,
          "internalType": "address",
          "name": "creator",
          "type": "address"
        },
        {
          "indexed": false,
          "internalType": "uint128",
          "name": "amount",
          "type": "uint128"
        },
        {
          "indexed": false,
          "internalType": "address",
          "name": "validPaymentToken",
          "type": "address"
        }
      ],
      "name": "InvoiceCreated",
      "type": "event"
    },
    {
      "anonymous": false,
      "inputs": [
        {
          "indexed": false,
          "internalType": "uint128",
          "name": "invoiceIdx",
          "type": "uint128"
        },
        {
          "indexed": false,
          "internalType": "address",
          "name": "creator",
          "type": "address"
        },
        {
          "indexed": false,
          "internalType": "address",
          "name": "payer",
          "type": "address"
        }
      ],
      "name": "PaymentCanceled",
      "type": "event"
    },
    {
      "anonymous": false,
      "inputs": [
        {
          "indexed": false,
          "internalType": "uint128",
          "name": "invoiceIdx",
          "type": "uint128"
        }
      ],
      "name": "PaymentWithdrawn",
      "type": "event"
    },
    {
      "inputs": [
        {
          "internalType": "uint128",
          "name": "invoiceIdx",
          "type": "uint128"
        },
        {
          "internalType": "bool",
          "name": "recurrent",
          "type": "bool"
        }
      ],
      "name": "acceptInvoice",
      "outputs": [],
      "stateMutability": "payable",
      "type": "function"
    },
    {
      "inputs": [
        {
          "internalType": "uint128",
          "name": "invoiceIdx",
          "type": "uint128"
        }
      ],
      "name": "cancelPayment",
      "outputs": [],
      "stateMutability": "payable",
      "type": "function"
    },
    {
      "inputs": [
        {
          "internalType": "uint128",
          "name": "_amount",
          "type": "uint128"
        },
        {
          "internalType": "bool",
          "name": "_recurrent",
          "type": "bool"
        },
        {
          "internalType": "uint128",
          "name": "_numberOfRecurrentPayment",
          "type": "uint128"
        },
        {
          "internalType": "uint128",
          "name": "_recurrentPaymentInterval",
          "type": "uint128"
        },
        {
          "internalType": "uint128",
          "name": "_criticalPeriod",
          "type": "uint128"
        },
        {
          "internalType": "address",
          "name": "_validPaymentToken",
          "type": "address"
        },
        {
          "internalType": "address[]",
          "name": "_payers",
          "type": "address[]"
        }
      ],
      "name": "createInvoice",
      "outputs": [
        {
          "internalType": "uint128",
          "name": "invoiceIdx",
          "type": "uint128"
        }
      ],
      "stateMutability": "nonpayable",
      "type": "function"
    },
    {
      "inputs": [],
      "name": "currentInvoiceIdx",
      "outputs": [
        {
          "internalType": "uint128",
          "name": "",
          "type": "uint128"
        }
      ],
      "stateMutability": "view",
      "type": "function"
    },
    {
      "inputs": [],
      "name": "defaultCriticalPeriod",
      "outputs": [
        {
          "internalType": "uint128",
          "name": "",
          "type": "uint128"
        }
      ],
      "stateMutability": "view",
      "type": "function"
    },
    {
      "inputs": [
        {
          "internalType": "uint128",
          "name": "invoiceIdx",
          "type": "uint128"
        }
      ],
      "name": "getInvoice",
      "outputs": [
        {
          "components": [
            {
              "internalType": "uint128",
              "name": "invoiceIdx",
              "type": "uint128"
            },
            {
              "internalType": "uint128",
              "name": "amount",
              "type": "uint128"
            },
            {
              "internalType": "uint128",
              "name": "criticalPeriod",
              "type": "uint128"
            },
            {
              "internalType": "address",
              "name": "creator",
              "type": "address"
            },
            {
              "internalType": "address[]",
              "name": "payers",
              "type": "address[]"
            },
            {
              "internalType": "bool",
              "name": "recurrent",
              "type": "bool"
            },
            {
              "internalType": "int128",
              "name": "numberOfRecurrentPayment",
              "type": "int128"
            },
            {
              "internalType": "uint128",
              "name": "recurrentPaymentInterval",
              "type": "uint128"
            },
            {
              "internalType": "address",
              "name": "validPaymentToken",
              "type": "address"
            },
            {
              "internalType": "uint128",
              "name": "lastWithdrawal",
              "type": "uint128"
            },
            {
              "internalType": "enum Sisan.InvoiceStatus",
              "name": "status",
              "type": "uint8"
            }
          ],
          "internalType": "struct Sisan.Invoice",
          "name": "invoice",
          "type": "tuple"
        }
      ],
      "stateMutability": "view",
      "type": "function"
    },
    {
      "inputs": [
        {
          "internalType": "address",
          "name": "creator",
          "type": "address"
        },
        {
          "internalType": "address",
          "name": "payer",
          "type": "address"
        },
        {
          "internalType": "uint128",
          "name": "invoiceIdx",
          "type": "uint128"
        }
      ],
      "name": "getInvoiceBalance",
      "outputs": [
        {
          "internalType": "uint256",
          "name": "balance",
          "type": "uint256"
        }
      ],
      "stateMutability": "view",
      "type": "function"
    },
    {
      "inputs": [
        {
          "internalType": "address",
          "name": "creator",
          "type": "address"
        },
        {
          "internalType": "uint128",
          "name": "invoiceIdx",
          "type": "uint128"
        }
      ],
      "name": "getInvoiceByCreatorAndIdx",
      "outputs": [
        {
          "components": [
            {
              "internalType": "uint128",
              "name": "invoiceIdx",
              "type": "uint128"
            },
            {
              "internalType": "uint128",
              "name": "amount",
              "type": "uint128"
            },
            {
              "internalType": "uint128",
              "name": "criticalPeriod",
              "type": "uint128"
            },
            {
              "internalType": "address",
              "name": "creator",
              "type": "address"
            },
            {
              "internalType": "address[]",
              "name": "payers",
              "type": "address[]"
            },
            {
              "internalType": "bool",
              "name": "recurrent",
              "type": "bool"
            },
            {
              "internalType": "int128",
              "name": "numberOfRecurrentPayment",
              "type": "int128"
            },
            {
              "internalType": "uint128",
              "name": "recurrentPaymentInterval",
              "type": "uint128"
            },
            {
              "internalType": "address",
              "name": "validPaymentToken",
              "type": "address"
            },
            {
              "internalType": "uint128",
              "name": "lastWithdrawal",
              "type": "uint128"
            },
            {
              "internalType": "enum Sisan.InvoiceStatus",
              "name": "status",
              "type": "uint8"
            }
          ],
          "internalType": "struct Sisan.Invoice",
          "name": "invoice",
          "type": "tuple"
        }
      ],
      "stateMutability": "view",
      "type": "function"
    },
    {
      "inputs": [
        {
          "internalType": "address",
          "name": "payer",
          "type": "address"
        },
        {
          "internalType": "uint128",
          "name": "invoiceIdx",
          "type": "uint128"
        }
      ],
      "name": "getInvoiceByPayerAndIdx",
      "outputs": [
        {
          "components": [
            {
              "internalType": "uint128",
              "name": "invoiceIdx",
              "type": "uint128"
            },
            {
              "internalType": "uint128",
              "name": "amount",
              "type": "uint128"
            },
            {
              "internalType": "uint128",
              "name": "criticalPeriod",
              "type": "uint128"
            },
            {
              "internalType": "address",
              "name": "creator",
              "type": "address"
            },
            {
              "internalType": "address[]",
              "name": "payers",
              "type": "address[]"
            },
            {
              "internalType": "bool",
              "name": "recurrent",
              "type": "bool"
            },
            {
              "internalType": "int128",
              "name": "numberOfRecurrentPayment",
              "type": "int128"
            },
            {
              "internalType": "uint128",
              "name": "recurrentPaymentInterval",
              "type": "uint128"
            },
            {
              "internalType": "address",
              "name": "validPaymentToken",
              "type": "address"
            },
            {
              "internalType": "uint128",
              "name": "lastWithdrawal",
              "type": "uint128"
            },
            {
              "internalType": "enum Sisan.InvoiceStatus",
              "name": "status",
              "type": "uint8"
            }
          ],
          "internalType": "struct Sisan.Invoice",
          "name": "invoice",
          "type": "tuple"
        }
      ],
      "stateMutability": "view",
      "type": "function"
    },
    {
      "inputs": [
        {
          "internalType": "uint128",
          "name": "invoiceIdx",
          "type": "uint128"
        },
        {
          "internalType": "address",
          "name": "payer",
          "type": "address"
        }
      ],
      "name": "withdrawPayment",
      "outputs": [],
      "stateMutability": "nonpayable",
      "type": "function"
    },
    {
      "stateMutability": "payable",
      "type": "receive"
    }
  ],
  "bytecode": "0x6080604052600280546001600160801b031916611bf0179055600380546001600160a01b03191690553480156200003557600080fd5b506001600081905580546001600160801b031916905560025462000064906001600160801b03166007620000b0565b600180546001600160801b03928316600160801b0292169190911790556040517f5daa87a0e9463431830481fd4b6e3403442dfb9a12b9c07597e9f61d50b633c890600090a1620000ea565b6001600160801b03818116838216028082169190828114620000e257634e487b7160e01b600052601160045260246000fd5b505092915050565b61368a80620000fa6000396000f3fe6080604052600436106100945760003560e01c806370f6ba351161005957806370f6ba351461019f5780637c3b8ad5146101bf578063b5736018146101ed578063b64b1a3614610200578063de28cea81461021357600080fd5b806234fd60146100d35780630ae188f6146101105780630ce78d481461013d5780631ad8d20b1461015d57806366c2c2b21461017f57600080fd5b366100ce576040513481527f18a2de56d99b6c6f702e6567687a1e25628c8a03a2608c1339b3ac70930e52eb9060200160405180910390a1005b600080fd5b3480156100df57600080fd5b506001546100f3906001600160801b031681565b6040516001600160801b0390911681526020015b60405180910390f35b34801561011c57600080fd5b5061013061012b366004612ef7565b61023a565b6040516101079190612fa7565b34801561014957600080fd5b50610130610158366004612ef7565b610396565b34801561016957600080fd5b5061017d6101783660046130be565b6104d3565b005b34801561018b57600080fd5b5061013061019a3660046130e8565b610d88565b3480156101ab57600080fd5b506100f36101ba36600461315f565b610ed6565b3480156101cb57600080fd5b506101df6101da366004613274565b6113e7565b604051908152602001610107565b61017d6101fb3660046132b7565b61143a565b61017d61020e3660046130e8565b611d70565b34801561021f57600080fd5b506001546100f390600160801b90046001600160801b031681565b610242612df1565b6001600160a01b0380841660009081526006602090815260408083206001600160801b0380881685529083529281902081516101608101835281548086168252600160801b90048516818501526001820154909416848301526002810154909416606084015260038401805482518185028101850190935280835293949360808601938301828280156102fe57602002820191906000526020600020905b81546001600160a01b031681526001909101906020018083116102e0575b5050509183525050600482015460ff80821615156020840152610100909104600f0b604083015260058301546001600160801b03908116606084015260068401546001600160a01b03166080840152600784015490811660a084015260c090920191600160801b900416600381111561037957610379612f6f565b600381111561038a5761038a612f6f565b90525090505b92915050565b61039e612df1565b6001600160a01b0380841660009081526005602090815260408083206001600160801b0380881685529083529281902081516101608101835281548086168252600160801b90048516818501526001820154909416848301526002810154909416606084015260038401805482518185028101850190935280835293949360808601938301828280156102fe576020028201919060005260206000209081546001600160a01b031681526001909101906020018083116102e0575050509183525050600482015460ff80821615156020840152610100909104600f0b604083015260058301546001600160801b03908116606084015260068401546001600160a01b03166080840152600784015490811660a084015260c090920191600160801b900416600381111561037957610379612f6f565b6104db612870565b6001600160801b03808316600090815260076020908152604080832081516101608101835281548087168252600160801b900486168185015260018201549095168583015260028101546001600160a01b0316606086015260038101805483518186028101860190945280845294959491936080860193929083018282801561058d57602002820191906000526020600020905b81546001600160a01b0316815260019091019060200180831161056f575b5050509183525050600482015460ff80821615156020840152610100909104600f0b604083015260058301546001600160801b03908116606084015260068401546001600160a01b03166080840152600784015490811660a084015260c090920191600160801b900416600381111561060857610608612f6f565b600381111561061957610619612f6f565b90525060608101519091506001600160a01b031633146106a65760405162461bcd60e51b815260206004820152603f60248201527f536973616e3a3a77697468647261775061796d656e743a3a4f6e6c792076616c60448201527f69642063726561746f722063616e207769746864726177207061796d656e740060648201526084015b60405180910390fd5b80604001516001600160801b031643116107285760405162461bcd60e51b815260206004820152603f60248201527f536973616e3a3a77697468647261775061796d656e743a3a43616e206f6e6c7960448201527f20776974686472617720616674657220637269746963616c20706572696f6400606482015260840161069d565b6001816101400151600381111561074157610741612f6f565b146107a35760405162461bcd60e51b815260206004820152602c60248201527f536973616e3a3a77697468647261775061796d656e743a3a496e766f6963652060448201526b1b9bdd081858d8d95c1d195960a21b606482015260840161069d565b60608101516001600160a01b039081166000908152600460209081526040808320938616835292815282822084516001600160801b031683529052908120546107eb9061289a565b90506000816001600160801b03161161085f5760405162461bcd60e51b815260206004820152603060248201527f536973616e3a3a77697468647261775061796d656e743a3a496e766f6963652060448201526f7061796d656e7420636f6d706c65746560801b606482015260840161069d565b6003546101008301516001600160a01b0390811691161461096f5761010082015160208301516040516370a0823160e01b81523060048201526001600160801b03909116906001600160a01b038316906370a0823190602401602060405180830381865afa1580156108d5573d6000803e3d6000fd5b505050506040513d601f19601f820116820180604052508101906108f991906132ee565b101561096d5760405162461bcd60e51b815260206004820152603d60248201527f536973616e3a3a77697468647261775061796d656e743a3a496e73756666696360448201527f696e7420746f6b656e2062616c616e636520696e20636f6e7472616374000000606482015260840161069d565b505b60018260c00151600f0b1315610b4d57600082610120015143610992919061331d565b905060008360e00151826109a69190613344565b905060008460200151826109ba9190613378565b60608601516001600160a01b039081166000908152600460209081526040808320938b16835292815282822089516001600160801b039081168452915291902054919250610a14908290610a0f908516612930565b61293d565b60608701516001600160a01b039081166000908152600460209081526040808320938c1683529281528282208a516001600160801b039081168452915291902091909155431661012087015260c0860151610a709084906133a3565b600f0b60c08701526003546101008701516001600160a01b03918216911603610ace5760405133906001600160801b03841680156108fc02916000818181858888f19350505050158015610ac8573d6000803e3d6000fd5b50610b48565b61010086015160405163a9059cbb60e01b81526001600160a01b0382169063a9059cbb90610b0290339087906004016133e2565b6020604051808303816000875af1158015610b21573d6000803e3d6000fd5b505050506040513d601f19601f82011682018060405250810190610b459190613404565b50505b505050505b60018260c00151600f0b13610d395760608201516001600160a01b039081166000908152600460209081526040808320938716835292815282822085516001600160801b0390811684529082529290912054908401519091610bb5918391610a0f9116612930565b60608401516001600160a01b039081166000908152600460209081526040808320938916835292815282822087516001600160801b039081168452915291902091909155431661012084015260c0830151610c12906001906133a3565b600f0b60c08401526003546101008401516001600160a01b03918216911603610c7457602083015160405133916001600160801b031680156108fc02916000818181858888f19350505050158015610c6e573d6000803e3d6000fd5b50610cf1565b610100830151602084015160405163a9059cbb60e01b81526001600160a01b0383169163a9059cbb91610cab9133916004016133e2565b6020604051808303816000875af1158015610cca573d6000803e3d6000fd5b505050506040513d601f19601f82011682018060405250810190610cee9190613404565b50505b60036101408401528251604080516001600160801b039092168252517f2fd0bfd8fbe3fc61d500b99b0e2dd3a759f58b9a95a075304f9718515df3526f9181900360200190a1505b81516040516001600160801b0390911681527fb3b0981570aa2a6d5a861c595e05230bc925b3f22a2bf148abdd8e88f3f29c789060200160405180910390a15050610d846001600055565b5050565b610d90612df1565b6001600160801b0380831660009081526007602090815260409182902082516101608101845281548086168252600160801b900485168184015260018201549094168484015260028101546001600160a01b0316606085015260038101805484518185028101850190955280855291936080860193909290830182828015610e4157602002820191906000526020600020905b81546001600160a01b03168152600190910190602001808311610e23575b5050509183525050600482015460ff80821615156020840152610100909104600f0b604083015260058301546001600160801b03908116606084015260068401546001600160a01b03166080840152600784015490811660a084015260c090920191600160801b9004166003811115610ebc57610ebc612f6f565b6003811115610ecd57610ecd612f6f565b90525092915050565b8051600090815b81811015610f7e57336001600160a01b0316848281518110610f0157610f01613421565b60200260200101516001600160a01b031603610f765760405162461bcd60e51b815260206004820152602e60248201527f536973616e3a3a616363657074496e766f6963653a3a43726561746f7220636160448201526d37103737ba103132903830bcb2b960911b606482015260840161069d565b600101610edd565b506001546001600160801b03600160801b9091048116908616101561100b5760405162461bcd60e51b815260206004820152603d60248201527f536973616e3a3a616363657074496e766f6963653a3a437269746963616c207060448201527f6572696f64206d757374206265206174206c6561737420372064617973000000606482015260840161069d565b60408051610160810182526001546001600160801b0390811682528b166020820152600091810161103c8843613437565b6001600160801b039081168252336020830152604082018790528b15156060830152600f8b900b608083015289811660a08301526001600160a01b03881660c0830152431660e082015261010001600090526060810180516001600160a01b03908116600090815260056020908152604080832086516001600160801b03908116855290835292819020865183880151908516600160801b91861691909102178155908601516001820180546001600160801b031916919094161790925592516002820180546001600160a01b0319169190931617909155608083015180519394508493919261113492600385019290910190612e4a565b5060a082015160048201805460c08501516001600160801b03908116610100908102610100600160881b0319951515959095166001600160881b0319938416179490941790925560e08501516005850180549184166001600160801b0319928316179055928501516006850180546001600160a01b039092166001600160a01b0319909216919091179055610120850151600785018054919093169381168417835561014086015193911617600160801b8360038111156111f7576111f7612f6f565b02179055505081516001600160801b03908116600090815260076020908152604091829020855182870151908516600160801b91861691909102178155918501516001830180546001600160801b031916919094161790925560608401516002820180546001600160a01b0319166001600160a01b0390921691909117905560808401518051859450919261129492600385019290910190612e4a565b5060a082015160048201805460c08501516001600160801b03908116610100908102610100600160881b0319951515959095166001600160881b0319938416179490941790925560e08501516005850180549184166001600160801b0319928316179055928501516006850180546001600160a01b039092166001600160a01b0319909216919091179055610120850151600785018054919093169381168417835561014086015193911617600160801b83600381111561135757611357612f6f565b021790555050600180546001600160801b03169150600061137783613457565b91906101000a8154816001600160801b0302191690836001600160801b03160217905550507fec3bba3ad1a9e19d889306e43d378166d94e9102e7d51e43e9556b03380a117683338c886040516113d1949392919061347d565b60405180910390a1519998505050505050505050565b6001600160a01b03808416600090815260046020908152604080832093861683529281528282206001600160801b03851683529052908120546114299061289a565b6001600160801b0316949350505050565b611442612870565b6001600160801b03808316600090815260076020908152604080832081516101608101835281548087168252600160801b900486168185015260018201549095168583015260028101546001600160a01b031660608601526003810180548351818602810186019094528084529495949193608086019392908301828280156114f457602002820191906000526020600020905b81546001600160a01b031681526001909101906020018083116114d6575b5050509183525050600482015460ff80821615156020840152610100909104600f0b604083015260058301546001600160801b03908116606084015260068401546001600160a01b03166080840152600784015490811660a084015260c090920191600160801b900416600381111561156f5761156f612f6f565b600381111561158057611580612f6f565b8152505090508060a001511515821515146115f55760405162461bcd60e51b815260206004820152602f60248201527f536973616e3a3a616363657074496e766f6963653a3a5061796d656e74206d7560448201526e1cdd081899481c9958dd5c9c995b9d608a1b606482015260840161069d565b6080810151516000805b8281101561164a57336001600160a01b03168460800151828151811061162757611627613421565b60200260200101516001600160a01b03160361164257600191505b6001016115ff565b50806116be5760405162461bcd60e51b815260206004820152603960248201527f536973616e3a3a616363657074496e766f6963653a3a4f6e6c792076616c696460448201527f2070617965722063616e20616363657074207061796d656e7400000000000000606482015260840161069d565b60016101408401819052503360009081526006602090815260408083206001600160801b03898116855290835292819020865187840151908516600160801b91861691909102178155908601516001820180546001600160801b031916919094161790925560608501516002830180546001600160a01b0319166001600160a01b0390921691909117905560808501518051869392611764926003850192910190612e4a565b5060a082015160048201805460c08501516001600160801b03908116610100908102610100600160881b0319951515959095166001600160881b0319938416179490941790925560e08501516005850180549184166001600160801b0319928316179055928501516006850180546001600160a01b039092166001600160a01b0319909216919091179055610120850151600785018054919093169381168417835561014086015193911617600160801b83600381111561182757611827612f6f565b021790555050506001600160801b03858116600090815260076020908152604091829020865187830151908516600160801b91861691909102178155918601516001830180546001600160801b031916919094161790925560608501516002820180546001600160a01b0319166001600160a01b039092169190911790556080850151805186936118bf926003850192910190612e4a565b5060a082015160048201805460c08501516001600160801b03908116610100908102610100600160881b0319951515959095166001600160881b0319938416179490941790925560e08501516005850180549184166001600160801b0319928316179055928501516006850180546001600160a01b039092166001600160a01b0319909216919091179055610120850151600785018054919093169381168417835561014086015193911617600160801b83600381111561198257611982612f6f565b0217905550505060c0830151602084015160009161199f91613378565b905060006119b5826001600160801b0316612930565b60608601516001600160a01b03908116600090815260046020908152604080832033845282528083208a516001600160801b0316845290915290208290556003546101008801519293508116911603611a80578460a0015115611a545760008560c0015134611a249190613378565b905034816001600160801b031614611a4e5760405162461bcd60e51b815260040161069d906134b0565b50611a80565b3485602001516001600160801b031614611a805760405162461bcd60e51b815260040161069d906134b0565b6003546101008601516001600160a01b03908116911614611d1b57610100850151604051636eb1769f60e11b81523360048201523060248201526000906001600160a01b0383169063dd62ed3e90604401602060405180830381865afa158015611aee573d6000803e3d6000fd5b505050506040513d601f19601f82011682018060405250810190611b1291906132ee565b90508660a0015115611c295760008760c001518860200151611b349190613378565b905081816001600160801b031614611ba35760405162461bcd60e51b815260206004820152602c60248201527f536973616e3a3a616363657074496e766f6963653a3a496e737566666963696560448201526b6e7420616c6c6f77616e636560a01b606482015260840161069d565b6040516323b872dd60e01b81523360048201523060248201526001600160801b03821660448201526001600160a01b038416906323b872dd906064016020604051808303816000875af1158015611bfe573d6000803e3d6000fd5b505050506040513d601f19601f82011682018060405250810190611c229190613404565b5050611d18565b8087602001516001600160801b031614611c9f5760405162461bcd60e51b815260206004820152603160248201527f536973616e3a3a616363657074496e766f6963653a3a496e73756666696369656044820152701b9d081d1bdad95b88185d1d1858da1959607a1b606482015260840161069d565b6040516323b872dd60e01b8152336004820152306024820152604481018290526001600160a01b038316906323b872dd906064016020604051808303816000875af1158015611cf2573d6000803e3d6000fd5b505050506040513d601f19601f82011682018060405250810190611d169190613404565b505b50505b7fcdfa86f2aff07d87d97973bc55f6041be5d94ab6ed79ab54bfab827855bd270c87338760200151886101000151604051611d59949392919061347d565b60405180910390a15050505050610d846001600055565b611d78612870565b6001600160801b03808216600090815260076020908152604080832081516101608101835281548087168252600160801b900486168185015260018201549095168583015260028101546001600160a01b03166060860152600381018054835181860281018601909452808452949594919360808601939290830182828015611e2a57602002820191906000526020600020905b81546001600160a01b03168152600190910190602001808311611e0c575b5050509183525050600482015460ff80821615156020840152610100909104600f0b604083015260058301546001600160801b03908116606084015260068401546001600160a01b03166080840152600784015490811660a084015260c090920191600160801b9004166003811115611ea557611ea5612f6f565b6003811115611eb657611eb6612f6f565b9052506080810151519091506000805b82816001600160801b03161015611f2d57336001600160a01b03168460800151826001600160801b031681518110611f0057611f00613421565b60200260200101516001600160a01b031603611f1b57600191505b80611f2581613457565b915050611ec6565b5080611fa15760405162461bcd60e51b815260206004820152603960248201527f536973616e3a3a63616e63656c5061796d656e743a3a4f6e6c792076616c696460448201527f2070617965722063616e2063616e63656c207061796d656e7400000000000000606482015260840161069d565b60018211156120465760005b82816001600160801b0316101561204457336001600160a01b03168460800151826001600160801b031681518110611fe757611fe7613421565b60200260200101516001600160a01b031603612032578360800151816001600160801b03168151811061201c5761201c613421565b6020026020010160006001600160a01b03168152505b8061203c81613457565b915050611fad565b505b60006001600160a01b0316836080015160008151811061206857612068613421565b60200260200101516001600160a01b0316036120875760026101408401525b6001600160801b03848116600090815260076020908152604091829020865187830151908516600160801b91861691909102178155918601516001830180546001600160801b031916919094161790925560608501516002820180546001600160a01b0319166001600160a01b03909216919091179055608085015180518693612118926003850192910190612e4a565b5060a082015160048201805460c08501516001600160801b03908116610100908102610100600160881b0319951515959095166001600160881b0319938416179490941790925560e08501516005850180549184166001600160801b0319928316179055928501516006850180546001600160a01b039092166001600160a01b0319909216919091179055610120850151600785018054919093169381168417835561014086015193911617600160801b8360038111156121db576121db612f6f565b02179055509050506121f284846060015133612984565b6121fc6000612930565b60608401516001600160a01b03166000908152600460209081526040808320338452825280832087516001600160801b039081168552925291829020929092558401511643111561264e5760008360c00151600f0b13156124575760c0830151602084015160009061227090600290613344565b602086015161227f9084613378565b612289919061331d565b6003546101008701519192506001600160a01b039081169116036123355760405133906001600160801b03831680156108fc02916000818181858888f193505050501580156122dc573d6000803e3d6000fd5b5084606001516001600160a01b03166108fc600287602001516122ff9190613344565b6001600160801b03169081150290604051600060405180830381858888f19350505050158015612333573d6000803e3d6000fd5b505b6003546101008601516001600160a01b039081169116146124505761010085015160405163a9059cbb60e01b81526001600160a01b0382169063a9059cbb9061238490339086906004016133e2565b6020604051808303816000875af11580156123a3573d6000803e3d6000fd5b505050506040513d601f19601f820116820180604052508101906123c79190613404565b50806001600160a01b031663a9059cbb8760600151600289602001516123ed9190613344565b6040518363ffffffff1660e01b815260040161240a9291906133e2565b6020604051808303816000875af1158015612429573d6000803e3d6000fd5b505050506040513d601f19601f8201168201806040525081019061244d9190613404565b50505b5050612807565b6003546101008401516001600160a01b0391821691160361251d57336001600160a01b03166108fc600285602001516124909190613344565b6001600160801b03169081150290604051600060405180830381858888f193505050501580156124c4573d6000803e3d6000fd5b5082606001516001600160a01b03166108fc600285602001516124e79190613344565b6001600160801b03169081150290604051600060405180830381858888f1935050505015801561251b573d6000803e3d6000fd5b505b6003546101008401516001600160a01b039081169116146126495760008361010001519050806001600160a01b031663a9059cbb33600287602001516125639190613344565b6040518363ffffffff1660e01b81526004016125809291906133e2565b6020604051808303816000875af115801561259f573d6000803e3d6000fd5b505050506040513d601f19601f820116820180604052508101906125c39190613404565b50806001600160a01b031663a9059cbb8560600151600287602001516125e99190613344565b6040518363ffffffff1660e01b81526004016126069291906133e2565b6020604051808303816000875af1158015612625573d6000803e3d6000fd5b505050506040513d601f19601f820116820180604052508101906124509190613404565b612807565b60008360c00151600f0b13156127195760c083015160208401516000906126759083613378565b6003546101008701519192506001600160a01b039081169116036126ca5760405133906001600160801b03831680156108fc02916000818181858888f193505050501580156126c8573d6000803e3d6000fd5b505b6003546101008601516001600160a01b039081169116146124505761010085015160405163a9059cbb60e01b81526001600160a01b0382169063a9059cbb9061240a90339086906004016133e2565b6003546101008401516001600160a01b0391821691160361276f57602083015160405133916001600160801b031680156108fc02916000818181858888f1935050505015801561276d573d6000803e3d6000fd5b505b6003546101008401516001600160a01b0390811691161461280757610100830151602084015160405163a9059cbb60e01b81526001600160a01b0383169163a9059cbb916127c19133916004016133e2565b6020604051808303816000875af11580156127e0573d6000803e3d6000fd5b505050506040513d601f19601f820116820180604052508101906128049190613404565b50505b8251606080850151604080516001600160801b0390941684526001600160a01b03909116602084015233908301527f67b852a25dbca1a5de0f7b9afd5caa88916fd615655121429817081c8ba88619910160405180910390a150505061286d6001600055565b50565b60026000540361289357604051633ee5aeb560e01b815260040160405180910390fd5b6002600055565b6000816128ae576128ab6000612930565b91505b8160006128ba82612ca7565b604051631cf3005560e21b81529091506000906080906373cc0154906128e69060049086908201613551565b602060405180830381865afa158015612903573d6000803e3d6000fd5b505050506040513d601f19601f8201168201806040525081019061292791906132ee565b95945050505050565b6000610390826004612cd1565b6000826129515761294e6000612930565b92505b81612963576129606000612930565b91505b8282600061297a60048484608063cc2cbeff612d5d565b9695505050505050565b6001600160801b03808416600090815260076020908152604080832081516101608101835281548087168252600160801b900486168185015260018201549095168583015260028101546001600160a01b03166060860152600381018054835181860281018601909452808452949594919360808601939290830182828015612a3657602002820191906000526020600020905b81546001600160a01b03168152600190910190602001808311612a18575b5050509183525050600482015460ff80821615156020840152610100909104600f0b604083015260058301546001600160801b03908116606084015260068401546001600160a01b03166080840152600784015490811660a084015260c090920191600160801b9004166003811115612ab157612ab1612f6f565b6003811115612ac257612ac2612f6f565b90525060e08101519091506000906001600160801b031615612b0b57600082610120015143612af1919061331d565b90508260e0015181612b039190613344565b915050612b0f565b5060015b6000826020015182612b219190613378565b6001600160a01b03808716600090815260046020908152604080832093891683529281528282206001600160801b03808c168452915291902054919250612b6f908290610a0f908516612930565b6001600160a01b038088166000908152600460209081526040808320938a16835292815282822088516001600160801b039081168452915291902091909155431661012085015260c0840151612bc69084906133a3565b600f0b60c08501526003546101008501516001600160a01b03918216911603612c245760405133906001600160801b03841680156108fc02916000818181858888f19350505050158015612c1e573d6000803e3d6000fd5b50612c9e565b61010084015160405163a9059cbb60e01b81526001600160a01b0382169063a9059cbb90612c5890339087906004016133e2565b6020604051808303816000875af1158015612c77573d6000803e3d6000fd5b505050506040513d601f19601f82011682018060405250810190612c9b9190613404565b50505b50505050505050565b60408051602080825281830190925260609160208201818036833750505060208101929092525090565b6000606060806319e1c5c4612ce586612ca7565b856040518363ffffffff1660e01b8152600401612d0392919061356d565b600060405180830381865afa158015612d20573d6000803e3d6000fd5b505050506040513d6000823e601f3d908101601f19168201604052612d489190810190613592565b9050612d55816020015190565b949350505050565b60006060838388612d6d89612ca7565b612d7689612ca7565b6040518463ffffffff1660e01b8152600401612d9493929190613626565b600060405180830381865afa158015612db1573d6000803e3d6000fd5b505050506040513d6000823e601f3d908101601f19168201604052612dd99190810190613592565b9050612de6816020015190565b979650505050505050565b60408051610160810182526000808252602082018190529181018290526060808201839052608082015260a0810182905260c0810182905260e08101829052610100810182905261012081018290529061014082015290565b828054828255906000526020600020908101928215612e9f579160200282015b82811115612e9f57825182546001600160a01b0319166001600160a01b03909116178255602090920191600190910190612e6a565b50612eab929150612eaf565b5090565b5b80821115612eab5760008155600101612eb0565b80356001600160a01b0381168114612edb57600080fd5b919050565b80356001600160801b0381168114612edb57600080fd5b60008060408385031215612f0a57600080fd5b612f1383612ec4565b9150612f2160208401612ee0565b90509250929050565b60008151808452602080850194506020840160005b83811015612f645781516001600160a01b031687529582019590820190600101612f3f565b509495945050505050565b634e487b7160e01b600052602160045260246000fd5b60048110612fa357634e487b7160e01b600052602160045260246000fd5b9052565b60208152612fc16020820183516001600160801b03169052565b60006020830151612fdd60408401826001600160801b03169052565b5060408301516001600160801b03811660608401525060608301516001600160a01b03811660808401525060808301516101608060a0850152613024610180850183612f2a565b915060a085015161303960c086018215159052565b5060c085015161304e60e0860182600f0b9052565b5060e085015161010061306b818701836001600160801b03169052565b8601519050610120613087868201836001600160a01b03169052565b86015190506101406130a3868201836001600160801b03169052565b86015190506130b485830182612f85565b5090949350505050565b600080604083850312156130d157600080fd5b6130da83612ee0565b9150612f2160208401612ec4565b6000602082840312156130fa57600080fd5b61310382612ee0565b9392505050565b801515811461286d57600080fd5b634e487b7160e01b600052604160045260246000fd5b604051601f8201601f1916810167ffffffffffffffff8111828210171561315757613157613118565b604052919050565b600080600080600080600060e0888a03121561317a57600080fd5b61318388612ee0565b96506020808901356131948161310a565b96506131a260408a01612ee0565b95506131b060608a01612ee0565b94506131be60808a01612ee0565b93506131cc60a08a01612ec4565b925060c089013567ffffffffffffffff808211156131e957600080fd5b818b0191508b601f8301126131fd57600080fd5b81358181111561320f5761320f613118565b8060051b915061322084830161312e565b818152918301840191848101908e84111561323a57600080fd5b938501935b8385101561325f5761325085612ec4565b8252938501939085019061323f565b80965050505050505092959891949750929550565b60008060006060848603121561328957600080fd5b61329284612ec4565b92506132a060208501612ec4565b91506132ae60408501612ee0565b90509250925092565b600080604083850312156132ca57600080fd5b6132d383612ee0565b915060208301356132e38161310a565b809150509250929050565b60006020828403121561330057600080fd5b5051919050565b634e487b7160e01b600052601160045260246000fd5b6001600160801b0382811682821603908082111561333d5761333d613307565b5092915050565b60006001600160801b038084168061336c57634e487b7160e01b600052601260045260246000fd5b92169190910492915050565b6001600160801b0381811683821602808216919082811461339b5761339b613307565b505092915050565b600f82810b9082900b036f7fffffffffffffffffffffffffffffff1981126f7fffffffffffffffffffffffffffffff8213171561039057610390613307565b6001600160a01b039290921682526001600160801b0316602082015260400190565b60006020828403121561341657600080fd5b81516131038161310a565b634e487b7160e01b600052603260045260246000fd5b6001600160801b0381811683821601908082111561333d5761333d613307565b60006001600160801b0380831681810361347357613473613307565b6001019392505050565b6001600160801b0394851681526001600160a01b0393841660208201529190931660408201529116606082015260800190565b60208082526031908201527f536973616e3a3a616363657074496e766f6963653a3a496e73756666696369656040820152701b9d08195d1a195c88185d1d1858da1959607a1b606082015260800190565b60005b8381101561351c578181015183820152602001613504565b50506000910152565b6000815180845261353d816020860160208601613501565b601f01601f19169290920160200192915050565b60ff83168152604060208201526000612d556040830184613525565b6040815260006135806040830185613525565b905060ff831660208301529392505050565b6000602082840312156135a457600080fd5b815167ffffffffffffffff808211156135bc57600080fd5b818401915084601f8301126135d057600080fd5b8151818111156135e2576135e2613118565b6135f5601f8201601f191660200161312e565b915080825285602082850101111561360c57600080fd5b61361d816020840160208601613501565b50949350505050565b60ff841681526060602082015260006136426060830185613525565b828103604084015261297a818561352556fea26469706673582212202f3a0542496b835557a67e370664482f1dd0f5434d6a74a00566f3ca9c45bf3e64736f6c63430008180033",
  "linkReferences": {},
  "deployedLinkReferences": {}
}