{
  "_format": "hh-sol-artifact-1",
  "contractName": "Sisan",
  "sourceName": "contracts/Sisan.sol",
  "abi": [
    {
      "inputs": [],
      "stateMutability": "nonpayable",
      "type": "constructor"
    },
    {
      "inputs": [],
      "name": "ReentrancyGuardReentrantCall",
      "type": "error"
    },
    {
      "anonymous": false,
      "inputs": [
        {
          "indexed": false,
          "internalType": "uint256",
          "name": "amount",
          "type": "uint256"
        }
      ],
      "name": "EthRecieved",
      "type": "event"
    },
    {
      "anonymous": false,
      "inputs": [],
      "name": "Initialized",
      "type": "event"
    },
    {
      "anonymous": false,
      "inputs": [
        {
          "indexed": false,
          "internalType": "uint128",
          "name": "invoiceIdx",
          "type": "uint128"
        },
        {
          "indexed": false,
          "internalType": "address",
          "name": "payer",
          "type": "address"
        },
        {
          "indexed": false,
          "internalType": "uint128",
          "name": "amount",
          "type": "uint128"
        },
        {
          "indexed": false,
          "internalType": "address",
          "name": "validPaymentToken",
          "type": "address"
        }
      ],
      "name": "InvoiceAccepted",
      "type": "event"
    },
    {
      "anonymous": false,
      "inputs": [
        {
          "indexed": false,
          "internalType": "uint128",
          "name": "invoiceIdx",
          "type": "uint128"
        }
      ],
      "name": "InvoiceCompleted",
      "type": "event"
    },
    {
      "anonymous": false,
      "inputs": [
        {
          "indexed": false,
          "internalType": "uint128",
          "name": "invoiceIdx",
          "type": "uint128"
        },
        {
          "indexed": false,
          "internalType": "address",
          "name": "creator",
          "type": "address"
        },
        {
          "indexed": false,
          "internalType": "uint128",
          "name": "amount",
          "type": "uint128"
        },
        {
          "indexed": false,
          "internalType": "address",
          "name": "validPaymentToken",
          "type": "address"
        }
      ],
      "name": "InvoiceCreated",
      "type": "event"
    },
    {
      "anonymous": false,
      "inputs": [
        {
          "indexed": false,
          "internalType": "uint128",
          "name": "invoiceIdx",
          "type": "uint128"
        },
        {
          "indexed": false,
          "internalType": "address",
          "name": "creator",
          "type": "address"
        },
        {
          "indexed": false,
          "internalType": "address",
          "name": "payer",
          "type": "address"
        }
      ],
      "name": "PaymentCanceled",
      "type": "event"
    },
    {
      "anonymous": false,
      "inputs": [
        {
          "indexed": false,
          "internalType": "uint128",
          "name": "invoiceIdx",
          "type": "uint128"
        }
      ],
      "name": "PaymentWithdrawn",
      "type": "event"
    },
    {
      "inputs": [
        {
          "internalType": "uint128",
          "name": "invoiceIdx",
          "type": "uint128"
        },
        {
          "internalType": "bool",
          "name": "recurrent",
          "type": "bool"
        }
      ],
      "name": "acceptInvoice",
      "outputs": [],
      "stateMutability": "payable",
      "type": "function"
    },
    {
      "inputs": [
        {
          "internalType": "uint128",
          "name": "invoiceIdx",
          "type": "uint128"
        }
      ],
      "name": "cancelPayment",
      "outputs": [],
      "stateMutability": "payable",
      "type": "function"
    },
    {
      "inputs": [
        {
          "internalType": "uint128",
          "name": "_amount",
          "type": "uint128"
        },
        {
          "internalType": "bool",
          "name": "_recurrent",
          "type": "bool"
        },
        {
          "internalType": "uint128",
          "name": "_numberOfRecurrentPayment",
          "type": "uint128"
        },
        {
          "internalType": "uint128",
          "name": "_recurrentPaymentInterval",
          "type": "uint128"
        },
        {
          "internalType": "uint128",
          "name": "_criticalPeriod",
          "type": "uint128"
        },
        {
          "internalType": "address",
          "name": "_validPaymentToken",
          "type": "address"
        },
        {
          "internalType": "address[]",
          "name": "_payers",
          "type": "address[]"
        }
      ],
      "name": "createInvoice",
      "outputs": [
        {
          "internalType": "uint128",
          "name": "invoiceIdx",
          "type": "uint128"
        }
      ],
      "stateMutability": "nonpayable",
      "type": "function"
    },
    {
      "inputs": [],
      "name": "currentInvoiceIdx",
      "outputs": [
        {
          "internalType": "uint128",
          "name": "",
          "type": "uint128"
        }
      ],
      "stateMutability": "view",
      "type": "function"
    },
    {
      "inputs": [],
      "name": "defaultCriticalPeriod",
      "outputs": [
        {
          "internalType": "uint128",
          "name": "",
          "type": "uint128"
        }
      ],
      "stateMutability": "view",
      "type": "function"
    },
    {
      "inputs": [
        {
          "internalType": "uint128",
          "name": "invoiceIdx",
          "type": "uint128"
        }
      ],
      "name": "getInvoice",
      "outputs": [
        {
          "components": [
            {
              "internalType": "uint128",
              "name": "invoiceIdx",
              "type": "uint128"
            },
            {
              "internalType": "uint128",
              "name": "amount",
              "type": "uint128"
            },
            {
              "internalType": "uint128",
              "name": "criticalPeriod",
              "type": "uint128"
            },
            {
              "internalType": "address",
              "name": "creator",
              "type": "address"
            },
            {
              "internalType": "address[]",
              "name": "payers",
              "type": "address[]"
            },
            {
              "internalType": "bool",
              "name": "recurrent",
              "type": "bool"
            },
            {
              "internalType": "int128",
              "name": "numberOfRecurrentPayment",
              "type": "int128"
            },
            {
              "internalType": "uint128",
              "name": "recurrentPaymentInterval",
              "type": "uint128"
            },
            {
              "internalType": "address",
              "name": "validPaymentToken",
              "type": "address"
            },
            {
              "internalType": "uint128",
              "name": "lastWithdrawal",
              "type": "uint128"
            },
            {
              "internalType": "enum Sisan.InvoiceStatus",
              "name": "status",
              "type": "uint8"
            }
          ],
          "internalType": "struct Sisan.Invoice",
          "name": "invoice",
          "type": "tuple"
        }
      ],
      "stateMutability": "view",
      "type": "function"
    },
    {
      "inputs": [
        {
          "internalType": "address",
          "name": "creator",
          "type": "address"
        },
        {
          "internalType": "address",
          "name": "payer",
          "type": "address"
        },
        {
          "internalType": "uint128",
          "name": "invoiceIdx",
          "type": "uint128"
        }
      ],
      "name": "getInvoiceBalance",
      "outputs": [
        {
          "internalType": "uint256",
          "name": "balance",
          "type": "uint256"
        }
      ],
      "stateMutability": "view",
      "type": "function"
    },
    {
      "inputs": [
        {
          "internalType": "address",
          "name": "creator",
          "type": "address"
        },
        {
          "internalType": "uint128",
          "name": "invoiceIdx",
          "type": "uint128"
        }
      ],
      "name": "getInvoiceByCreatorAndIdx",
      "outputs": [
        {
          "components": [
            {
              "internalType": "uint128",
              "name": "invoiceIdx",
              "type": "uint128"
            },
            {
              "internalType": "uint128",
              "name": "amount",
              "type": "uint128"
            },
            {
              "internalType": "uint128",
              "name": "criticalPeriod",
              "type": "uint128"
            },
            {
              "internalType": "address",
              "name": "creator",
              "type": "address"
            },
            {
              "internalType": "address[]",
              "name": "payers",
              "type": "address[]"
            },
            {
              "internalType": "bool",
              "name": "recurrent",
              "type": "bool"
            },
            {
              "internalType": "int128",
              "name": "numberOfRecurrentPayment",
              "type": "int128"
            },
            {
              "internalType": "uint128",
              "name": "recurrentPaymentInterval",
              "type": "uint128"
            },
            {
              "internalType": "address",
              "name": "validPaymentToken",
              "type": "address"
            },
            {
              "internalType": "uint128",
              "name": "lastWithdrawal",
              "type": "uint128"
            },
            {
              "internalType": "enum Sisan.InvoiceStatus",
              "name": "status",
              "type": "uint8"
            }
          ],
          "internalType": "struct Sisan.Invoice",
          "name": "invoice",
          "type": "tuple"
        }
      ],
      "stateMutability": "view",
      "type": "function"
    },
    {
      "inputs": [
        {
          "internalType": "address",
          "name": "payer",
          "type": "address"
        },
        {
          "internalType": "uint128",
          "name": "invoiceIdx",
          "type": "uint128"
        }
      ],
      "name": "getInvoiceByPayerAndIdx",
      "outputs": [
        {
          "components": [
            {
              "internalType": "uint128",
              "name": "invoiceIdx",
              "type": "uint128"
            },
            {
              "internalType": "uint128",
              "name": "amount",
              "type": "uint128"
            },
            {
              "internalType": "uint128",
              "name": "criticalPeriod",
              "type": "uint128"
            },
            {
              "internalType": "address",
              "name": "creator",
              "type": "address"
            },
            {
              "internalType": "address[]",
              "name": "payers",
              "type": "address[]"
            },
            {
              "internalType": "bool",
              "name": "recurrent",
              "type": "bool"
            },
            {
              "internalType": "int128",
              "name": "numberOfRecurrentPayment",
              "type": "int128"
            },
            {
              "internalType": "uint128",
              "name": "recurrentPaymentInterval",
              "type": "uint128"
            },
            {
              "internalType": "address",
              "name": "validPaymentToken",
              "type": "address"
            },
            {
              "internalType": "uint128",
              "name": "lastWithdrawal",
              "type": "uint128"
            },
            {
              "internalType": "enum Sisan.InvoiceStatus",
              "name": "status",
              "type": "uint8"
            }
          ],
          "internalType": "struct Sisan.Invoice",
          "name": "invoice",
          "type": "tuple"
        }
      ],
      "stateMutability": "view",
      "type": "function"
    },
    {
      "inputs": [
        {
          "internalType": "uint128",
          "name": "invoiceIdx",
          "type": "uint128"
        },
        {
          "internalType": "address",
          "name": "payer",
          "type": "address"
        }
      ],
      "name": "withdrawPayment",
      "outputs": [],
      "stateMutability": "nonpayable",
      "type": "function"
    },
    {
      "stateMutability": "payable",
      "type": "receive"
    }
  ],
  "bytecode": "0x6080604052600280546001600160801b031916611bf0179055600380546001600160a01b03191690553480156200003557600080fd5b506001600081905580546001600160801b031916905560025462000064906001600160801b03166007620000b0565b600180546001600160801b03928316600160801b0292169190911790556040517f5daa87a0e9463431830481fd4b6e3403442dfb9a12b9c07597e9f61d50b633c890600090a1620000ea565b6001600160801b03818116838216028082169190828114620000e257634e487b7160e01b600052601160045260246000fd5b505092915050565b61309680620000fa6000396000f3fe6080604052600436106100945760003560e01c806370f6ba351161005957806370f6ba351461019f5780637c3b8ad5146101bf578063b5736018146101ed578063b64b1a3614610200578063de28cea81461021357600080fd5b806234fd60146100d35780630ae188f6146101105780630ce78d481461013d5780631ad8d20b1461015d57806366c2c2b21461017f57600080fd5b366100ce576040513481527f18a2de56d99b6c6f702e6567687a1e25628c8a03a2608c1339b3ac70930e52eb9060200160405180910390a1005b600080fd5b3480156100df57600080fd5b506001546100f3906001600160801b031681565b6040516001600160801b0390911681526020015b60405180910390f35b34801561011c57600080fd5b5061013061012b366004612912565b61023a565b60405161010791906129c2565b34801561014957600080fd5b50610130610158366004612912565b610394565b34801561016957600080fd5b5061017d610178366004612ad9565b6104d1565b005b34801561018b57600080fd5b5061013061019a366004612b03565b610d51565b3480156101ab57600080fd5b506100f36101ba366004612b7a565b610e9f565b3480156101cb57600080fd5b506101df6101da366004612c8f565b6113b0565b604051908152602001610107565b61017d6101fb366004612cd2565b611403565b61017d61020e366004612b03565b611d37565b34801561021f57600080fd5b506001546100f390600160801b90046001600160801b031681565b61024261280c565b6001600160a01b0380841660009081526006602090815260408083206001600160801b0380881685529083529281902081516101608101835281548086168252600160801b90048516818501526001820154909416848301526002810154909416606084015260038401805482518185028101850190935280835293949360808601938301828280156102fe57602002820191906000526020600020905b81546001600160a01b031681526001909101906020018083116102e0575b5050509183525050600482015460ff80821615156020840152610100909104600f0b604083015260058301546001600160801b03908116606084015260068401546001600160a01b03166080840152600784015490811660a084015260c090920191600160801b90041660038111156103795761037961298a565b600381111561038a5761038a61298a565b9052509392505050565b61039c61280c565b6001600160a01b0380841660009081526005602090815260408083206001600160801b0380881685529083529281902081516101608101835281548086168252600160801b90048516818501526001820154909416848301526002810154909416606084015260038401805482518185028101850190935280835293949360808601938301828280156102fe576020028201919060005260206000209081546001600160a01b031681526001909101906020018083116102e0575050509183525050600482015460ff80821615156020840152610100909104600f0b604083015260058301546001600160801b03908116606084015260068401546001600160a01b03166080840152600784015490811660a084015260c090920191600160801b90041660038111156103795761037961298a565b6104d96125a8565b6001600160801b03808316600090815260076020908152604080832081516101608101835281548087168252600160801b900486168185015260018201549095168583015260028101546001600160a01b0316606086015260038101805483518186028101860190945280845294959491936080860193929083018282801561058b57602002820191906000526020600020905b81546001600160a01b0316815260019091019060200180831161056d575b5050509183525050600482015460ff80821615156020840152610100909104600f0b604083015260058301546001600160801b03908116606084015260068401546001600160a01b03166080840152600784015490811660a084015260c090920191600160801b90041660038111156106065761060661298a565b60038111156106175761061761298a565b90525060608101519091506001600160a01b031633146106a45760405162461bcd60e51b815260206004820152603f60248201527f536973616e3a3a77697468647261775061796d656e743a3a4f6e6c792076616c60448201527f69642063726561746f722063616e207769746864726177207061796d656e740060648201526084015b60405180910390fd5b80604001516001600160801b031643116107265760405162461bcd60e51b815260206004820152603f60248201527f536973616e3a3a77697468647261775061796d656e743a3a43616e206f6e6c7960448201527f20776974686472617720616674657220637269746963616c20706572696f6400606482015260840161069b565b6001816101400151600381111561073f5761073f61298a565b146107a15760405162461bcd60e51b815260206004820152602c60248201527f536973616e3a3a77697468647261775061796d656e743a3a496e766f6963652060448201526b1b9bdd081858d8d95c1d195960a21b606482015260840161069b565b60608101516001600160a01b039081166000908152600460209081526040808320938616835292815282822084516001600160801b031683529052908120546107e9906125d2565b90506000816001600160801b03161161085d5760405162461bcd60e51b815260206004820152603060248201527f536973616e3a3a77697468647261775061796d656e743a3a496e766f6963652060448201526f7061796d656e7420636f6d706c65746560801b606482015260840161069b565b6003546101008301516001600160a01b0390811691161461096d5761010082015160208301516040516370a0823160e01b81523060048201526001600160801b03909116906001600160a01b038316906370a0823190602401602060405180830381865afa1580156108d3573d6000803e3d6000fd5b505050506040513d601f19601f820116820180604052508101906108f79190612d09565b101561096b5760405162461bcd60e51b815260206004820152603d60248201527f536973616e3a3a77697468647261775061796d656e743a3a496e73756666696360448201527f696e7420746f6b656e2062616c616e636520696e20636f6e7472616374000000606482015260840161069b565b505b60c0820180519061097d82612d38565b600f0b600f0b8152505060008260c00151600f0b1315610b3a576000826101200151436109aa9190612d68565b905060008360e00151826109be9190612d8f565b905060008460200151826109d29190612dc3565b60608601516001600160a01b039081166000908152600460209081526040808320938b16835292815282822089516001600160801b039081168452915291902054919250610a2c908290610a27908516612668565b61267b565b60608701516001600160a01b0390811660009081526004602090815260408083208c8516845282528083208b516001600160801b03168452909152902091909155600354610100880151908216911603610abb5760405133906001600160801b03841680156108fc02916000818181858888f19350505050158015610ab5573d6000803e3d6000fd5b50610b35565b61010086015160405163a9059cbb60e01b81526001600160a01b0382169063a9059cbb90610aef9033908790600401612dee565b6020604051808303816000875af1158015610b0e573d6000803e3d6000fd5b505050506040513d601f19601f82011682018060405250810190610b329190612e10565b50505b505050505b60008260c00151600f0b13610d02576003546101008301516001600160a01b03918216911603610ba357602082015160405133916001600160801b031680156108fc02916000818181858888f19350505050158015610b9d573d6000803e3d6000fd5b50610c20565b610100820151602083015160405163a9059cbb60e01b81526001600160a01b0383169163a9059cbb91610bda913391600401612dee565b6020604051808303816000875af1158015610bf9573d6000803e3d6000fd5b505050506040513d601f19601f82011682018060405250810190610c1d9190612e10565b50505b60608201516001600160a01b039081166000908152600460209081526040808320938716835292815282822085516001600160801b0390811684529082529290912054908401519091610c79918391610a279116612668565b60608401516001600160a01b039081166000908152600460209081526040808320938916835292815282822087516001600160801b0316835290522055600361014084018190525082516040516001600160801b0390911681527f2fd0bfd8fbe3fc61d500b99b0e2dd3a759f58b9a95a075304f9718515df3526f9060200160405180910390a1505b81516040516001600160801b0390911681527fb3b0981570aa2a6d5a861c595e05230bc925b3f22a2bf148abdd8e88f3f29c789060200160405180910390a15050610d4d6001600055565b5050565b610d5961280c565b6001600160801b0380831660009081526007602090815260409182902082516101608101845281548086168252600160801b900485168184015260018201549094168484015260028101546001600160a01b0316606085015260038101805484518185028101850190955280855291936080860193909290830182828015610e0a57602002820191906000526020600020905b81546001600160a01b03168152600190910190602001808311610dec575b5050509183525050600482015460ff80821615156020840152610100909104600f0b604083015260058301546001600160801b03908116606084015260068401546001600160a01b03166080840152600784015490811660a084015260c090920191600160801b9004166003811115610e8557610e8561298a565b6003811115610e9657610e9661298a565b90525092915050565b8051600090815b81811015610f4757336001600160a01b0316848281518110610eca57610eca612e2d565b60200260200101516001600160a01b031603610f3f5760405162461bcd60e51b815260206004820152602e60248201527f536973616e3a3a616363657074496e766f6963653a3a43726561746f7220636160448201526d37103737ba103132903830bcb2b960911b606482015260840161069b565b600101610ea6565b506001546001600160801b03600160801b90910481169086161015610fd45760405162461bcd60e51b815260206004820152603d60248201527f536973616e3a3a616363657074496e766f6963653a3a437269746963616c207060448201527f6572696f64206d757374206265206174206c6561737420372064617973000000606482015260840161069b565b60408051610160810182526001546001600160801b0390811682528b16602082015260009181016110058843612e43565b6001600160801b039081168252336020830152604082018790528b15156060830152600f8b900b608083015289811660a08301526001600160a01b03881660c0830152431660e082015261010001600090526060810180516001600160a01b03908116600090815260056020908152604080832086516001600160801b03908116855290835292819020865183880151908516600160801b91861691909102178155908601516001820180546001600160801b031916919094161790925592516002820180546001600160a01b031916919093161790915560808301518051939450849391926110fd92600385019290910190612865565b5060a082015160048201805460c08501516001600160801b03908116610100908102610100600160881b0319951515959095166001600160881b0319938416179490941790925560e08501516005850180549184166001600160801b0319928316179055928501516006850180546001600160a01b039092166001600160a01b0319909216919091179055610120850151600785018054919093169381168417835561014086015193911617600160801b8360038111156111c0576111c061298a565b02179055505081516001600160801b03908116600090815260076020908152604091829020855182870151908516600160801b91861691909102178155918501516001830180546001600160801b031916919094161790925560608401516002820180546001600160a01b0319166001600160a01b0390921691909117905560808401518051859450919261125d92600385019290910190612865565b5060a082015160048201805460c08501516001600160801b03908116610100908102610100600160881b0319951515959095166001600160881b0319938416179490941790925560e08501516005850180549184166001600160801b0319928316179055928501516006850180546001600160a01b039092166001600160a01b0319909216919091179055610120850151600785018054919093169381168417835561014086015193911617600160801b8360038111156113205761132061298a565b021790555050600180546001600160801b03169150600061134083612e63565b91906101000a8154816001600160801b0302191690836001600160801b03160217905550507fec3bba3ad1a9e19d889306e43d378166d94e9102e7d51e43e9556b03380a117683338c8860405161139a9493929190612e89565b60405180910390a1519998505050505050505050565b6001600160a01b03808416600090815260046020908152604080832093861683529281528282206001600160801b03851683529052908120546113f2906125d2565b6001600160801b0316949350505050565b61140b6125a8565b6001600160801b03808316600090815260076020908152604080832081516101608101835281548087168252600160801b900486168185015260018201549095168583015260028101546001600160a01b031660608601526003810180548351818602810186019094528084529495949193608086019392908301828280156114bd57602002820191906000526020600020905b81546001600160a01b0316815260019091019060200180831161149f575b5050509183525050600482015460ff80821615156020840152610100909104600f0b604083015260058301546001600160801b03908116606084015260068401546001600160a01b03166080840152600784015490811660a084015260c090920191600160801b90041660038111156115385761153861298a565b60038111156115495761154961298a565b8152505090508060a001511515821515146115be5760405162461bcd60e51b815260206004820152602f60248201527f536973616e3a3a616363657074496e766f6963653a3a5061796d656e74206d7560448201526e1cdd081899481c9958dd5c9c995b9d608a1b606482015260840161069b565b6080810151516000805b8281101561161357336001600160a01b0316846080015182815181106115f0576115f0612e2d565b60200260200101516001600160a01b03160361160b57600191505b6001016115c8565b50806116875760405162461bcd60e51b815260206004820152603960248201527f536973616e3a3a63616e63656c5061796d656e743a3a4f6e6c792076616c696460448201527f2070617965722063616e20616363657074207061796d656e7400000000000000606482015260840161069b565b60016101408401819052506001600160801b03858116600090815260076020908152604091829020865187830151908516600160801b91861691909102178155918601516001830180546001600160801b031916919094161790925560608501516002820180546001600160a01b0319166001600160a01b03909216919091179055608085015180518693611723926003850192910190612865565b5060a082015160048201805460c08501516001600160801b03908116610100908102610100600160881b0319951515959095166001600160881b0319938416179490941790925560e08501516005850180549184166001600160801b0319928316179055928501516006850180546001600160a01b039092166001600160a01b0319909216919091179055610120850151600785018054919093169381168417835561014086015193911617600160801b8360038111156117e6576117e661298a565b0217905550503360009081526006602090815260408083206001600160801b038a8116855290835292819020875188840151908516600160801b91861691909102178155908701516001820180546001600160801b031916919094161790925560608601516002830180546001600160a01b0319166001600160a01b03909216919091179055608086015180518794506118869260038501920190612865565b5060a082015160048201805460c08501516001600160801b03908116610100908102610100600160881b0319951515959095166001600160881b0319938416179490941790925560e08501516005850180549184166001600160801b0319928316179055928501516006850180546001600160a01b039092166001600160a01b0319909216919091179055610120850151600785018054919093169381168417835561014086015193911617600160801b8360038111156119495761194961298a565b0217905550505060c0830151602084015160009161196691612dc3565b9050600061197c826001600160801b0316612668565b60608601516001600160a01b03908116600090815260046020908152604080832033845282528083208a516001600160801b0316845290915290208290556003546101008801519293508116911603611a47578460a0015115611a1b5760008560c00151346119eb9190612dc3565b905034816001600160801b031614611a155760405162461bcd60e51b815260040161069b90612ebc565b50611a47565b3485602001516001600160801b031614611a475760405162461bcd60e51b815260040161069b90612ebc565b6003546101008601516001600160a01b03908116911614611ce257610100850151604051636eb1769f60e11b81523360048201523060248201526000906001600160a01b0383169063dd62ed3e90604401602060405180830381865afa158015611ab5573d6000803e3d6000fd5b505050506040513d601f19601f82011682018060405250810190611ad99190612d09565b90508660a0015115611bf05760008760c001518860200151611afb9190612dc3565b905081816001600160801b031614611b6a5760405162461bcd60e51b815260206004820152602c60248201527f536973616e3a3a616363657074496e766f6963653a3a496e737566666963696560448201526b6e7420616c6c6f77616e636560a01b606482015260840161069b565b6040516323b872dd60e01b81523360048201523060248201526001600160801b03821660448201526001600160a01b038416906323b872dd906064016020604051808303816000875af1158015611bc5573d6000803e3d6000fd5b505050506040513d601f19601f82011682018060405250810190611be99190612e10565b5050611cdf565b8087602001516001600160801b031614611c665760405162461bcd60e51b815260206004820152603160248201527f536973616e3a3a616363657074496e766f6963653a3a496e73756666696369656044820152701b9d081d1bdad95b88185d1d1858da1959607a1b606482015260840161069b565b6040516323b872dd60e01b8152336004820152306024820152604481018290526001600160a01b038316906323b872dd906064016020604051808303816000875af1158015611cb9573d6000803e3d6000fd5b505050506040513d601f19601f82011682018060405250810190611cdd9190612e10565b505b50505b7fcdfa86f2aff07d87d97973bc55f6041be5d94ab6ed79ab54bfab827855bd270c87338760200151886101000151604051611d209493929190612e89565b60405180910390a15050505050610d4d6001600055565b611d3f6125a8565b6001600160801b03808216600090815260076020908152604080832081516101608101835281548087168252600160801b900486168185015260018201549095168583015260028101546001600160a01b03166060860152600381018054835181860281018601909452808452949594919360808601939290830182828015611df157602002820191906000526020600020905b81546001600160a01b03168152600190910190602001808311611dd3575b5050509183525050600482015460ff80821615156020840152610100909104600f0b604083015260058301546001600160801b03908116606084015260068401546001600160a01b03166080840152600784015490811660a084015260c090920191600160801b9004166003811115611e6c57611e6c61298a565b6003811115611e7d57611e7d61298a565b9052506080810151519091506000805b82816001600160801b03161015611ef457336001600160a01b03168460800151826001600160801b031681518110611ec757611ec7612e2d565b60200260200101516001600160a01b031603611ee257600191505b80611eec81612e63565b915050611e8d565b5080611f685760405162461bcd60e51b815260206004820152603960248201527f536973616e3a3a63616e63656c5061796d656e743a3a4f6e6c792076616c696460448201527f2070617965722063616e2063616e63656c207061796d656e7400000000000000606482015260840161069b565b600182111561200d5760005b82816001600160801b0316101561200b57336001600160a01b03168460800151826001600160801b031681518110611fae57611fae612e2d565b60200260200101516001600160a01b031603611ff9578360800151816001600160801b031681518110611fe357611fe3612e2d565b6020026020010160006001600160a01b03168152505b8061200381612e63565b915050611f74565b505b60006001600160a01b0316836080015160008151811061202f5761202f612e2d565b60200260200101516001600160a01b03160361204e5760026101408401525b6001600160801b03848116600090815260076020908152604091829020865187830151908516600160801b91861691909102178155918601516001830180546001600160801b031916919094161790925560608501516002820180546001600160a01b0319166001600160a01b039092169190911790556080850151805186936120df926003850192910190612865565b5060a082015160048201805460c08501516001600160801b03908116610100908102610100600160881b0319951515959095166001600160881b0319938416179490941790925560e08501516005850180549184166001600160801b0319928316179055928501516006850180546001600160a01b039092166001600160a01b0319909216919091179055610120850151600785018054919093169381168417835561014086015193911617600160801b8360038111156121a2576121a261298a565b0217905550505060608301516001600160a01b03166000908152600460209081526040808320338452825280832086516001600160801b0316845282529091205460c08501519185015161220c92610a27916121fe9190612dc3565b6001600160801b0316612668565b60608401516001600160a01b03166000908152600460209081526040808320338452825280832087516001600160801b0390811685529252918290209290925584015116431115612451576003546101008401516001600160a01b0391821691160361231d57336001600160a01b03166108fc600285602001516122909190612d8f565b6001600160801b03169081150290604051600060405180830381858888f193505050501580156122c4573d6000803e3d6000fd5b5082606001516001600160a01b03166108fc600285602001516122e79190612d8f565b6001600160801b03169081150290604051600060405180830381858888f1935050505015801561231b573d6000803e3d6000fd5b505b6003546101008401516001600160a01b0390811691161461244c5760008361010001519050806001600160a01b031663a9059cbb33600287602001516123639190612d8f565b6040518363ffffffff1660e01b8152600401612380929190612dee565b6020604051808303816000875af115801561239f573d6000803e3d6000fd5b505050506040513d601f19601f820116820180604052508101906123c39190612e10565b50806001600160a01b031663a9059cbb8560600151600287602001516123e99190612d8f565b6040518363ffffffff1660e01b8152600401612406929190612dee565b6020604051808303816000875af1158015612425573d6000803e3d6000fd5b505050506040513d601f19601f820116820180604052508101906124499190612e10565b50505b61253f565b6003546101008401516001600160a01b039182169116036124a757602083015160405133916001600160801b031680156108fc02916000818181858888f193505050501580156124a5573d6000803e3d6000fd5b505b6003546101008401516001600160a01b0390811691161461253f57610100830151602084015160405163a9059cbb60e01b81526001600160a01b0383169163a9059cbb916124f9913391600401612dee565b6020604051808303816000875af1158015612518573d6000803e3d6000fd5b505050506040513d601f19601f8201168201806040525081019061253c9190612e10565b50505b8251606080850151604080516001600160801b0390941684526001600160a01b03909116602084015233908301527f67b852a25dbca1a5de0f7b9afd5caa88916fd615655121429817081c8ba88619910160405180910390a15050506125a56001600055565b50565b6002600054036125cb57604051633ee5aeb560e01b815260040160405180910390fd5b6002600055565b6000816125e6576125e36000612668565b91505b8160006125f2826126c2565b604051631cf3005560e21b81529091506000906080906373cc01549061261e9060049086908201612f5d565b602060405180830381865afa15801561263b573d6000803e3d6000fd5b505050506040513d601f19601f8201168201806040525081019061265f9190612d09565b95945050505050565b60006126758260046126ec565b92915050565b60008261268f5761268c6000612668565b92505b816126a15761269e6000612668565b91505b828260006126b860048484608063cc2cbeff612778565b9695505050505050565b60408051602080825281830190925260609160208201818036833750505060208101929092525090565b6000606060806319e1c5c4612700866126c2565b856040518363ffffffff1660e01b815260040161271e929190612f79565b600060405180830381865afa15801561273b573d6000803e3d6000fd5b505050506040513d6000823e601f3d908101601f191682016040526127639190810190612f9e565b9050612770816020015190565b949350505050565b60006060838388612788896126c2565b612791896126c2565b6040518463ffffffff1660e01b81526004016127af93929190613032565b600060405180830381865afa1580156127cc573d6000803e3d6000fd5b505050506040513d6000823e601f3d908101601f191682016040526127f49190810190612f9e565b9050612801816020015190565b979650505050505050565b60408051610160810182526000808252602082018190529181018290526060808201839052608082015260a0810182905260c0810182905260e08101829052610100810182905261012081018290529061014082015290565b8280548282559060005260206000209081019282156128ba579160200282015b828111156128ba57825182546001600160a01b0319166001600160a01b03909116178255602090920191600190910190612885565b506128c69291506128ca565b5090565b5b808211156128c657600081556001016128cb565b80356001600160a01b03811681146128f657600080fd5b919050565b80356001600160801b03811681146128f657600080fd5b6000806040838503121561292557600080fd5b61292e836128df565b915061293c602084016128fb565b90509250929050565b60008151808452602080850194506020840160005b8381101561297f5781516001600160a01b03168752958201959082019060010161295a565b509495945050505050565b634e487b7160e01b600052602160045260246000fd5b600481106129be57634e487b7160e01b600052602160045260246000fd5b9052565b602081526129dc6020820183516001600160801b03169052565b600060208301516129f860408401826001600160801b03169052565b5060408301516001600160801b03811660608401525060608301516001600160a01b03811660808401525060808301516101608060a0850152612a3f610180850183612945565b915060a0850151612a5460c086018215159052565b5060c0850151612a6960e0860182600f0b9052565b5060e0850151610100612a86818701836001600160801b03169052565b8601519050610120612aa2868201836001600160a01b03169052565b8601519050610140612abe868201836001600160801b03169052565b8601519050612acf858301826129a0565b5090949350505050565b60008060408385031215612aec57600080fd5b612af5836128fb565b915061293c602084016128df565b600060208284031215612b1557600080fd5b612b1e826128fb565b9392505050565b80151581146125a557600080fd5b634e487b7160e01b600052604160045260246000fd5b604051601f8201601f1916810167ffffffffffffffff81118282101715612b7257612b72612b33565b604052919050565b600080600080600080600060e0888a031215612b9557600080fd5b612b9e886128fb565b9650602080890135612baf81612b25565b9650612bbd60408a016128fb565b9550612bcb60608a016128fb565b9450612bd960808a016128fb565b9350612be760a08a016128df565b925060c089013567ffffffffffffffff80821115612c0457600080fd5b818b0191508b601f830112612c1857600080fd5b813581811115612c2a57612c2a612b33565b8060051b9150612c3b848301612b49565b818152918301840191848101908e841115612c5557600080fd5b938501935b83851015612c7a57612c6b856128df565b82529385019390850190612c5a565b80965050505050505092959891949750929550565b600080600060608486031215612ca457600080fd5b612cad846128df565b9250612cbb602085016128df565b9150612cc9604085016128fb565b90509250925092565b60008060408385031215612ce557600080fd5b612cee836128fb565b91506020830135612cfe81612b25565b809150509250929050565b600060208284031215612d1b57600080fd5b5051919050565b634e487b7160e01b600052601160045260246000fd5b600081600f0b6f7fffffffffffffffffffffffffffffff198103612d5e57612d5e612d22565b6000190192915050565b6001600160801b03828116828216039080821115612d8857612d88612d22565b5092915050565b60006001600160801b0380841680612db757634e487b7160e01b600052601260045260246000fd5b92169190910492915050565b6001600160801b03818116838216028082169190828114612de657612de6612d22565b505092915050565b6001600160a01b039290921682526001600160801b0316602082015260400190565b600060208284031215612e2257600080fd5b8151612b1e81612b25565b634e487b7160e01b600052603260045260246000fd5b6001600160801b03818116838216019080821115612d8857612d88612d22565b60006001600160801b03808316818103612e7f57612e7f612d22565b6001019392505050565b6001600160801b0394851681526001600160a01b0393841660208201529190931660408201529116606082015260800190565b60208082526031908201527f536973616e3a3a616363657074496e766f6963653a3a496e73756666696369656040820152701b9d08195d1a195c88185d1d1858da1959607a1b606082015260800190565b60005b83811015612f28578181015183820152602001612f10565b50506000910152565b60008151808452612f49816020860160208601612f0d565b601f01601f19169290920160200192915050565b60ff831681526040602082015260006127706040830184612f31565b604081526000612f8c6040830185612f31565b905060ff831660208301529392505050565b600060208284031215612fb057600080fd5b815167ffffffffffffffff80821115612fc857600080fd5b818401915084601f830112612fdc57600080fd5b815181811115612fee57612fee612b33565b613001601f8201601f1916602001612b49565b915080825285602082850101111561301857600080fd5b613029816020840160208601612f0d565b50949350505050565b60ff8416815260606020820152600061304e6060830185612f31565b82810360408401526126b88185612f3156fea264697066735822122030d6539d58785f7f8e5566e2fa3bd0ca0ab58a9856a181f48c9e32eed2f8d21264736f6c63430008180033",
  "linkReferences": {},
  "deployedLinkReferences": {}
}